:020000040800F2
:1000000090040020C1010008C9010008CB010008CC
:10001000CD010008CF010008D10100080000000058
:10002000000000000000000000000000D3010008F4
:10003000D501000800000000D70100087D16000867
:10004000DB010008DB010008DB010008DB01000820
:10005000DB010008DB010008DB010008DB01000810
:10006000DB010008DB010008DB010008DB01000800
:10007000DB010008DB010008DB010008DB010008F0
:10008000DB010008DB010008DB010008DB010008E0
:10009000DB010008DB010008DB010008DB010008D0
:1000A000DB010008DB010008DB0100088517000800
:1000B000DB010008DB010008DB010008DB010008B0
:1000C000DB010008DB010008DB010008DB010008A0
:1000D000DB010008DB010008DB010008DB01000890
:1000E000DB010008DB010008DB010008DB01000880
:1000F000DB010008DB010008DB010008DB01000870
:10010000DB010008DB010008DB010008DB0100085F
:10011000DB01000839190008DB010008DB010008D9
:10012000DB010008DB010008DB010008DB0100083F
:10013000DB010008DB010008DB010008DB0100082F
:10014000DB010008DB010008DB010008DB0100081F
:10015000DB010008DB010008DB010008DB0100080F
:10016000DB010008DB010008DB010008DB010008FF
:10017000DB010008DB010008DB01000800000000D3
:10018000DB010008DB010008DB010008DB010008DF
:10019000DB010008DB010008DB010008DB010008CF
:1001A000DB010008DB010008DB010008DFF80CD0F0
:1001B00000F07AF800480047911D000890040020E4
:1001C0000648804706480047FEE7FEE7FEE7FEE7F1
:1001D000FEE7FEE7FEE7FEE7FEE7FEE73117000871
:1001E000AD0100082DE9F05F0546002092469B46D0
:1001F00088460646814640241BE02846414647463D
:10020000224600F041F853465A46C01A914110D395
:1002100011461846224600F028F82D1A67EB01080F
:100220004F4622460120002100F01FF817EB00097D
:100230004E41201EA4F10104DFDC484631462A4627
:100240004346BDE8F09F40EA01039B0703D009E065
:1002500008C9121F08C0042AFAD203E011F8013BB2
:1002600000F8013B521EF9D27047202A04DB203AE5
:1002700000FA02F1002070479140C2F1200320FAF9
:1002800003F3194390407047202A04DB203A21FAF7
:1002900002F00021704721FA02F3D040C2F120029F
:1002A0009140084319467047064C074D06E0E06848
:1002B00040F0010394E8070098471034AC42F6D3AD
:1002C000FFF778FFE41D0008041E000890F83510C1
:1002D000022903D08021416501207047052180F863
:1002E00035100068016821F00101016000207047AD
:1002F0002DE9F84FDFF890B100224FF001084FF0E0
:10030000030A4FF00F090BF1040E00BF0B6808FA47
:1003100002F42340A3426ED14D68022D01D0122D6C
:100320000ED1D50800EB850CDCF820505607F70EEF
:1003300009FA07F6B5430E69BE402E43CCF820609B
:10034000066855000F790AFA05FC07F0030726EA4C
:100350000C06AF40374307604E68012E05D0022ED1
:1003600003D0112E01D0122E0ED18768CE6827EA55
:100370000C07AE403E4386604668A6430C79C4F342
:100380000014944034434460C4688E6824EA0C042A
:10039000AE402643C6604C68E4006FD53B4C2568F0
:1003A00045F480452560246822F0030504F4804468
:1003B0000094374C2E19D6F8084895072F0F09FAE4
:1003C00007F5AC43334DA84201D100252EE0324D54
:1003D000A84201D1012529E0304DA84201D10225D2
:1003E00024E02F4DA84201D103251FE02D4DA84246
:1003F00002D104251AE041E02B4DA84201D1052588
:1004000014E02A4DA84201D106250FE0284DA8424C
:1004100001D107250AE0274DA84201D1082505E0B2
:10042000254DA84201D1092500E00A25BD402543FC
:10043000C6F80858DBF800405D464E689C43F6035A
:1004400000D51C432C60DEF8004075464E689C4386
:10045000B60300D51C432C600B4D08352C684E6844
:100460009C43F60200D51C432C60074D0C352C68CC
:100470004E689C43B60200D51C432C60521C102AC7
:10048000FFF444AFBDE8F88F003C0140443802401F
:100490000030014000000240000402400008024019
:1004A000000C0240001002400014024000180240FC
:1004B000001C024000200240002402400AB1816179
:1004C00070470904FBE7000001488068704700009E
:1004D000040000200248816802781144816070475E
:1004E000040000200B4810B5016841F40071016060
:1004F000016841F480610160016841F4807101602C
:10050000032000F097F8002000F006F800F024F82F
:10051000002010BD003C024070B50D4D04464FF464
:100520007A712878B1FBF0F00A490968B1FBF0F064
:1005300000F01BFB48B9102C07D200222146501EA8
:1005400000F058F800206C6070BD012070BD000004
:1005500004000020100000201F4808B5016841F485
:1005600080410160006800F4804000901A48001F3C
:10057000016841F080510160006800F080500090F7
:10058000072000F057F8002211466FF00B0000F032
:1005900031F8002211466FF00A0000F02BF800221B
:1005A00011466FF0090000F025F800221146501F97
:1005B00000F020F800221146101F00F01BF8002266
:1005C0001146901E00F016F80022BDE808401146C2
:1005D000501E00F00FB800004438024000F01F0227
:1005E000012191404009800000F1E020C0F8001195
:1005F00070470000F0B40E4B1B680C46C3F3022397
:10060000C3F10705042D00D90425191D072901D2BE
:10061000002300E0DB1E012606FA05F1491E2140F9
:1006200099409E40761E16403143F0BC01F016B84A
:100630000CED00E0064900F0070208684FF6FF03E2
:10064000184040EA0220034A104308607047000047
:100650000CED00E00000FA052DE9F0470E4605001C
:1006600065D0DFF81481D8F80000F7B200F00F0071
:10067000B04207D288F80070D8F8000000F00F00F0
:10068000B04254D128683D4C810712D5400703D5AC
:10069000206840F4E05020602878000703D52068E7
:1006A00040F4604020602068A96820F0F000084312
:1006B00020602878C0072DD03049686808390128A3
:1006C00012D0022813D0032811D009688907002905
:1006D0002DDA216821F0030101432160FFF7F4FEC8
:1006E000814641F2883A0EE009688903EFE709681C
:1006F0008901ECE7FFF7E8FEA0EB0901514502D9BB
:100700000320BDE8F0872068696800F00C00B0EBBA
:10071000810FEFD1D8F80010404601F00F01B1422F
:1007200007D90770006800F00F00B04201D0012027
:10073000E7E72878400705D52068E96820F4E0500D
:10074000084320602878000706D52068296920F42E
:10075000604040EAC100206000F03CF82168084A8F
:10076000C1F30311515CC840064908600020FFF73F
:10077000D3FE0020C5E70000003C024008380240DC
:10078000CC1D0008100000200148006870470000E0
:10079000100000200448054900680968044AC1F3B4
:1007A0008221515CC8407047100000200838024088
:1007B000DC1D00080448054900680968044AC1F3C3
:1007C0004231515CC8407047100000200838024098
:1007D000DC1D0008154810B5006810F00C02144824
:1007E00013D04110042A0FD0082A0ED10F4C241F19
:1007F0002268236802F03F025B0207D52068C0F33D
:100800008810A0FB010106E0084610BD2168C1F375
:100810008811A1FB00010023FFF7E4FC2168C1F36C
:100820000141491C4900B0FBF1F010BD08380240FD
:100830000024F4002DE9F84F050076D02878DFF881
:10084000F8B2BE4CC00749D0DBF800105846C1F3DF
:100850008101012908D00068C0F3810002280AD173
:10086000201D0068400206D52068800336D56868E0
:100870000028E2D032E06868B0F5803F10D0B0F5D3
:10088000A02F206810D020F480302060206820F451
:10089000802020606868A0B1FFF716FE06460CE0D5
:1008A000206840F48030F4E740F480202060F7E7CF
:1008B000FFF70AFE801B642873D820688003F7D5F1
:1008C0000CE0FFF701FE064605E000BFFFF7FCFD68
:1008D000801B6428F0D820688003F7D42878DFF8DC
:1008E000608280074FF000093ED5DBF800105846C3
:1008F00011F00C0F09D00068C0F3810002280BD161
:100900008D48001F0068400206D42068800715D576
:10091000E868012809D111E0E868B8B10120C8F8F9
:100920000000FFF7D1FD064605E002E1FFF7CCFD30
:10093000801B0228C0D820688007F7D52068296965
:1009400020F0F80040EAC10020600DE0C8F80090F7
:10095000FFF7BAFD064604E0FFF7B6FD801B02284C
:100960001FD820688007F7D42878000722D5724E58
:10097000744869696C3671B101210160FFF7A4FD0B
:10098000074604E0FFF7A0FDC01B022809D8306825
:100990008007F7D50EE0C0F80090FFF795FD0746F9
:1009A00005E083E0FFF790FDC01B02287ED8306889
:1009B0008007F7D42878400768D5DFF87CA10027A6
:1009C0000AF1380ADAF80000C0000BD4DAF8001097
:1009D00041F08051CAF80010DAF80000012700F059
:1009E00080500090584E3068C00510D4306840F4F4
:1009F00080703060FFF768FD009005E0FFF764FD50
:100A00000099401A022851D83068C005F6D54A4EE0
:100A1000A868683601280FD00528306810D020F06B
:100A200001003060306820F004003060A868B8B180
:100A3000FFF74AFD00900FE0306840F00100F4E756
:100A400040F004003060F7E7FFF73EFD0099411ADF
:100A500041F28830814264D830688007F4D50EE0D6
:100A6000FFF732FD009007E0FFF72EFD0099411AD5
:100A700041F28830814254D830688007F4D42FB1D5
:100A8000DAF8001021F08051CAF80010A869C0B34C
:100A9000DBF80010C1F3810102294AD00228484640
:100AA00007D0C8F86000FFF70FFD00E039E0054609
:100AB0003AE04746C8F86000FFF706FD064604E046
:100AC000FFF702FD801B02282BD820688001F7D495
:100AD000D5E907010843A96A1C4A490802EB01410C
:100AE0006A6A41EA8211084395F82C1040EA0161D4
:100AF0001148001F016001203866FFF7E5FC05463C
:100B000005E014E0FFF7E0FC401B022809D820684C
:100B10008001F7D50BE000BFFFF7D6FC401B022891
:100B200002D90320BDE8F88F20688001F4D40020AA
:100B3000F8E70120F6E700000838024000380240DC
:100B400000004742800E4742007000400000FFFF57
:100B50004FF0E0210428086903D020F00400086168
:100B6000704740F00400FAE7704710B5401EB0F13E
:100B7000807F01D3012010BD4FF0E02460610F2180
:100B8000601700F06BFD0020A061072020610020AD
:100B900010BD10B5FFF7E8FF10BD7047704730B5C6
:100BA00090F83820012A20D0012280F83820022332
:100BB00080F8393003685C6824F070045C60036876
:100BC0005C680D682C435C6003689C6824F08004BA
:100BD0009C6003689C6849680C439C6080F83920DD
:100BE000002180F83810084630BD022030BD10B515
:100BF000040003D094F8390010B107E0012010BDC3
:100C0000002084F83800204600F00CF8022084F818
:100C10003900211D206800F0BBFD012084F8390057
:100C2000002010BD08B500680B49884212D10B485E
:100C3000016841F0010101600068002200F001003C
:100C4000009011461B20FFF7D5FCBDE808401B2093
:100C5000FFF7C4BC08BD000000000140443802405A
:100C600070B5044690F83800012817D0012584F8A3
:100C70003850022084F839002068826822F0770218
:100C800022F47F4282600868502837D00DDC20288B
:100C900059D005DC88B3102841D151E0022070BD45
:100CA000302853D040283AD13FE060282ED0702819
:100CB0000BD0B0F5805F03D0B0F5005F2FD110E00E
:100CC0002068816821F0070115E0CB68D1E9012196
:100CD000206800F0BDFD2168886840F077008860DA
:100CE0001DE0CB68D1E90121206800F0B1FD20684A
:100CF000816841F48041816011E01EE0CA68496862
:100D0000206800F0F5FD5021206806E0CA684968B7
:100D1000206800F0FEFD6021206800F0A3FD84F84B
:100D20003950002084F8380070BDCA6849682068CE
:100D300000F0DEFD40212068EFE700212068ECE7AD
:100D400010212068E9E720212068E6E730212068AB
:100D5000E3E7704770B50446006801694FF000058D
:100D6000C943890715D4C168C943890711D4E91E4D
:100D7000016101202076206880698007204602D02A
:100D8000FFF7E7FF04E000F098F8204600F096F83F
:100D9000257620680169C943490717D4C168C9434A
:100DA000490713D46FF00401016102202076206806
:100DB000806910F4407F204602D0FFF7CAFF04E0AC
:100DC00000F07BF8204600F079F82576206801696C
:100DD000C943090716D4C168C943090712D46FF083
:100DE00008010161042020762068C0698007204640
:100DF00002D0FFF7AEFF04E000F05FF8204600F0FD
:100E00005DF8257620680169C943C90617D4C16811
:100E1000C943C90613D46FF0100101610820207680
:100E20002068C06910F4407F204602D0FFF791FF90
:100E300004E000F042F8204600F040F825762068F3
:100E40000169C943C90708D1C168C943C90704D1A9
:100E5000891E0161204600F032F820680169C9430B
:100E6000090609D4C168C943090605D46FF0800199
:100E700001612046FFF791FE20680169C9434906D8
:100E800009D4C168C943490605D46FF04001016126
:100E9000204600F036F820680169C94389060BD462
:100EA000C168C943890607D46FF02001016120465B
:100EB000BDE87040FFF772BE70BD70477047704765
:100EC00070B5044690F83800012818D0012584F840
:100ED0003850022084F83900204600F0CBFC20680E
:100EE000C16821F04001C1602068C16821F48041DF
:100EF000C16084F83950002084F8380070BD0220A9
:100F000070BD70477047000070B5026804461068F5
:100F1000D168536910F00F0F50D003F0010501F4B0
:100F2000907635435DD0C20705D0CA0503D5E26B84
:100F300042F00102E263420705D5DA0703D0E26B13
:100F400042F00202E263820705D5DA0703D0E26BC2
:100F500042F00402E263020705D5DA0703D0E26B30
:100F600042F00802E263E26B002A33D0800604D527
:100F7000880602D5204600F0FBFC20684069E16B42
:100F8000C0F38010090700D428B3204600F0E2FC2B
:100F90002068416949061AD5416921F04001416143
:100FA000606BA0B11B490165606BFFF78FF90028EA
:100FB00010D0606B016DBDE870400847830610D506
:100FC0008B060ED52046BDE8704000F0D1BC20460F
:100FD000FFF798FF70BD2046FFF794FF0020E06305
:100FE00070BD030606D50B0604D52046BDE870404B
:100FF00000F05ABE4006F3D54806F1D5D168204628
:1010000021F04001D160202184F8391000F00DF961
:1010100070BD00004519000870B5040004D094F8B4
:101020003900002510B106E0012070BD84F8385069
:10103000204600F023F8242084F839002068C16895
:1010400021F40051C160204600F0D8FC20680169FD
:1010500021F4904101612068416921F02A01416138
:101060002068C16841F40051C160E563202084F824
:10107000390084F83A00002070BD0000F0B5006827
:10108000144987B0884223D11348016841F4801184
:1010900001600068022400F4801005904FF4805035
:1010A0000125032608278DE8F10069460B48FFF764
:1010B0001FF904208DE8F10069460948FFF718F987
:1010C000002211463520FFF795FA3520FFF786FA02
:1010D00007B0F0BD00500040403802400008024018
:1010E000000C024090F83A30202B1DD1D1B1CAB18A
:1010F00090F83830012B17D081628285C28500219B
:10110000C163222280F83A2080F8381001684A69C9
:1011100042F001024A610068C16841F49071C16007
:1011200000207047012070470220704700B500681A
:101130000B4985B0884210D114220A496846FFF74E
:1011400082F84FF0FF3301220749084800F010F8F9
:10115000012205490548FFF7C5FF05B000BD0000A5
:1011600000500040B81D0008000000205000002082
:101170002DE9F843044690F839001F4616460D46FF
:10118000202850D1A5B19EB194F8380001284AD04A
:10119000012084F838004FF00008C4F83C8021207A
:1011A00084F83900FFF790F9A6848146E68426E0AA
:1011B0000120BDE8F883E08C401EE084A0684B4627
:1011C000B0F5805F4FF000024FF08001204600979D
:1011D00003D000F09AFDE8B90DE000F096FDC8B923
:1011E00028882168C0F308004860206908B16D1C98
:1011F00005E0AD1C03E0216815F8010B4860E08CA8
:101200000028D8D14B46002240212046009700F00C
:101210007CFD08B10320CCE7202084F8390084F855
:1012200038800020C5E70220C3E770472DE9F04F62
:10123000CB4887B00024016841F0100101600168CB
:1012400001F010010591016841F00401016001689D
:1012500001F004010591016841F02001016001687D
:1012600001F020010591016841F0800101600168F1
:1012700001F080010591016841F001010160016800
:1012800001F001010591016841F00201016001686E
:1012900001F002010591016841F04001016001681F
:1012A00001F040010591016841F00801016000680A
:1012B000DFF8B0B200F00800059000220421584683
:1012C000FFF7FCF800221621A748FFF7F7F80022E5
:1012D0008021A648FFF7F2F800224FF44051A448BD
:1012E000FFF7ECF800224FF4C041A248FFF7E6F800
:1012F0004FF004090120CDF80090CDE901046946C2
:1013000058460394FEF7F4FF4FF63F000225CDE95F
:10131000000502AA03260C27DFF85CA282E8D000B1
:1013200069465046FEF7E4FF4FF460700090CDE947
:1013300001540520CDE9034069465046FEF7D8FF29
:1013400068020090CDE901544FF00E08CDE9034842
:1013500069465046FEF7CCFF0120CDE9000502AA00
:10136000694682E8D0008048FEF7C2FF1620009050
:101370000120CDE9010469467B480394FEF7B8FFDC
:1013800048F2070000907D48CDE90104694677489E
:10139000FEF7AEFF41F658000090CDE90154CDE9CB
:1013A000034869467148FEF7A3FF802000900120A2
:1013B000CDE9010469466D480394FEF799FF2020AA
:1013C00000906E48CDE9010469466748FEF790FF3A
:1013D0000096CDE901544FF0090ACDE9034A694668
:1013E0006748FEF785FFCDE900946946644802949A
:1013F000FEF77EFF48F23310CDE9000502AA6946E8
:1014000082E8D0005B48FEF773FF4FF68370CDE9AA
:10141000000502AA694682E8D0005846FEF768FF38
:101420004FF470600090CDE90154CDE9034869465E
:101430005348FEF75DFF4FF450400090CDE9015452
:10144000CDE9034769464E48FEF752FF2803CDE930
:10145000000469464A480294FEF74AFF4CF20370C2
:10146000CDE9000502AA694682E8D0004048FEF7AF
:101470003FFFA802CDE9000469463D480294FEF70B
:1014800037FF300300900120CDE901046946384858
:101490000394FEF72DFF4FF40C600090CDE901544A
:1014A000CDE9034869463348FEF722FF4FF49860C0
:1014B0000090CDE90154CDE9034869462A48FEF77A
:1014C00017FF28024FF0120BCDE9000B02AA0120F2
:1014D00082E8110269462448FEF70AFFE801CDE9D7
:1014E000000B02AA012082E8110269461F48FEF79C
:1014F000FFFE7002CDE9000502940720CDE90360EC
:1015000069461A48FEF7F4FE48200090CDE90154E0
:10151000CDE9034869461648FEF7EAFE4FF4A050AD
:101520000090CDE90154CDE9034A69461148FEF720
:10153000DFFE700300900120CDE9010469460D48EB
:101540000394FEF7D5FE6020CDE9000502AA6946A6
:1015500082E8D0000A48FEF7CBFE07B0BDE8F08F66
:1015600030380240001002400008024000000240F3
:10157000000C02400018024000140240000012104B
:101580000004024010B51D488CB01B490024C0E97E
:1015900000140915C0E9024104614461FFF727FB0B
:1015A00018B1402116A000F0E2FB4FF480500590E6
:1015B00005A91248FFF754FB18B1462110A000F00E
:1015C000D6FB0420CDE9000469460C48FFF778FCFF
:1015D00018B14D210AA000F0CAFB099409A90748D7
:1015E0000A94FFF7DCFA002803D0542104A000F08D
:1015F000BEFB0CB010BD0000000001401400002034
:101600002E2E2F5372632F74696D2E63000000001D
:101610000D4810B50B4901604FF41651416000218F
:1016200081600C22C160C0E904128161C161FFF7D1
:10163000F3FC002805D0BDE81040412103A000F0D4
:1016400096BB10BD00500040500000202E2E2F539E
:1016500072632F75736172742E6300000907090E9F
:10166000002806DA00F00F0000F1E02080F8141DD9
:10167000704700F1E02080F80014704710B5FEF7C5
:1016800029FFBDE81040FFF784BA000030B52648B6
:1016900093B00024016841F080510160006800F0BF
:1016A000805011902148016821F4404141F480416B
:1016B00001600068022500F4404011900120039071
:1016C00010200490009506950820CDE907403220AF
:1016D000099004200A9007200B906846FFF7AAF8AB
:1016E00000B1FEE70F20CDE90C054FF4C050CDE965
:1016F0000E404FF4A050109000210CA8FEF7ACFF54
:1017000000B1FEE7FFF740F84FF47A71B0FBF1F05B
:10171000FFF72BFA0420FFF71BFA00221146501E98
:10172000FEF768FF13B030BD403802400070004043
:101730001048016841F4700101600F48016841F0F0
:10174000010101600C4A00210832116002680B4B54
:101750001A400260031D0A4A1A60026822F48022BD
:10176000026005480C300160024958068039086063
:101770007047000088ED00E000380240FFFFF6FEF1
:10178000103000240148FFF7E5BA000014000020E3
:10179000F0B50268234B244D244E254F254C4FF0C5
:1017A000804C984209D0604507D0A84205D0B0428D
:1017B00003D0B84201D0A04204D122F0700E4A6892
:1017C00042EA0E0298421BD0604519D0A84217D0B9
:1017D000B04215D0B84213D0A04211D0164DA84245
:1017E0000ED0164DA8420BD0154DA84208D0154D6D
:1017F000A84205D0144DA84202D0144DA84203D1EE
:1018000022F44075CA682A4302608A68C2620A6884
:101810008262984201D0A04201D10969016301218D
:101820004161F0BD0000014000040040000800409C
:10183000000C004000040140004001400044014011
:101840000048014000180040001C004000200040FB
:1018500010B5846842EA032224F47F440A432243F9
:10186000826010BD826822F070020A4342F00701D4
:101870008160704730B403689A6822F070044A6847
:10188000224322F007040A6822439A604A6812F051
:101890000F0F1FD11211082A1CD2DFE802F01B1B08
:1018A0001B1B0B1D23040B69D1E90221006830BC0E
:1018B000FFF7CEBF0268136A146A24F001041462B1
:1018C00002689469096924F0F00444EA0111916105
:1018D0000068036230BC70470A698968006830BCE0
:1018E00000F006B80A698968006830BC00F011B8D9
:1018F00010B5036A046A24F001040462846924F0C8
:10190000F00444EA021423F00A020A4384610262EA
:1019100010BD10B5036A23F0100303628369046AE3
:1019200023F4704343EA023224F0A00343EA011196
:101930008261016210BD00000148FFF7E5BA0000B6
:101940005000002010B5806B0021C185C184FFF7D5
:10195000D9FA10BD0168CA6822F49072CA600168A1
:101960004A6922F001024A61202180F83A1070474A
:1019700010B590F83A10222901D0022010BD8168DC
:10198000B1F5805F11D00169002901681FD0496855
:1019900001F07F03816A4A1C82620B70C18D491E6F
:1019A0000904090CC18518D026E00269816A002A61
:1019B0000268526805D0D2B20A80816A491C8162ED
:1019C000ECE7C2F308020A80816A891CF7E74A68DB
:1019D000816A4B1C83620A70E0E70168CA6822F4DE
:1019E0009072CA6001684A6922F001024A612021AE
:1019F00080F83A10FFF79AFB002010BD2DE9F04166
:101A000004460068016921F44052E1681143016114
:101A10002168C86849F20C6290432369A268E569AD
:101A20001A4363692B431A430243CA602168486919
:101A300020F44072A06910434861E1696425B1F562
:101A4000004F9748974A21684FF032083FD09142A3
:101A500001D081427CD1FEF7ADFE00EBC00101EB6D
:101A6000001061688900B0FBF1F6FEF7A3FE00EB01
:101A7000C00101EB001061688900B0FBF1F0B0FB20
:101A8000F5F06FF01801484306EB800108EB0110F8
:101A9000B0FBF5F000F0F006FEF78CFE00EBC001A5
:101AA00001EB001061688900B0FBF1F0B0FBF5F0CC
:101AB00006EB0016FEF77EFE00EBC00101EB001006
:101AC00061688900B0FBF1F7FEF774FED2E0914245
:101AD00001D081423DD1FEF76DFE00EBC00101EB6C
:101AE000001061684900B0FBF1F0B0FBF5F00601B1
:101AF000FEF760FE00EBC00101EB001061684900D9
:101B0000B0FBF1F7FEF756FE00EBC00101EB001051
:101B100061684900B0FBF1F0B0FBF5F06FF018011F
:101B2000484307EB800108EBC100B0FBF5F000F083
:101B3000F80006EB4006FEF73DFE00EBC00101EBAE
:101B4000001061684900B0FBF1F7FEF733FE3CE09E
:101B500055E0FEF71FFE00EBC00101EB00106168CD
:101B60004900B0FBF1F0B0FBF5F00601FEF712FE04
:101B700000EBC00101EB001061684900B0FBF1F718
:101B8000FEF708FE00EBC00101EB001061684900A0
:101B9000B0FBF1F0B0FBF5F06FF01801484307EB34
:101BA000800108EBC100B0FBF5F000F0F80006EB97
:101BB0004006FEF7EFFD00EBC00101EB001061688D
:101BC0004900B0FBF1F7FEF7E5FD00EBC00101EBCA
:101BD000001061684900B0FBF1F0B0FBF5F06FF068
:101BE0001801484307EB800108EBC100B0FBF5F09A
:101BF00000F00700216830448860BDE8F081FEF7FE
:101C0000C9FD00EBC00101EB001061688900B0FB69
:101C1000F1F6FEF7BFFD00EBC00101EB00106168BB
:101C20008900B0FBF1F0B0FBF5F06FF0180148430C
:101C300006EB800108EB0110B0FBF5F000F0F006B8
:101C4000FEF7A8FD00EBC00101EB00106168890000
:101C5000B0FBF1F0B0FBF5F006EB0016FEF79AFDD5
:101C600000EBC00101EB001061688900B0FBF1F7E7
:101C7000FEF790FD00EBC00101EB001061688900E8
:101C8000B0FBF1F0B0FBF5F06FF01801484307EB43
:101C9000800108EB0110B0FBF5F000F00F00A9E7A0
:101CA000001401400010014090F83910212901D0A2
:101CB000022070478168B1F5805F016A0BD04A1C31
:101CC0000262026809785160C18C491E0904090C3E
:101CD000C1840ED017E009880268C1F30801516081
:101CE00001690029016A02D0491C0162ECE7891CE4
:101CF000FBE70168CA6822F08002CA600068C16818
:101D000041F04001C160002070472DE9F041984644
:101D100017460E460446069D1DE0681C1BD02DB1DB
:101D2000FEF7D2FBA0EB0800A84214D92068C168D6
:101D300021F4D071C1602068416921F00101416145
:101D4000202084F8390084F83A00002084F8380014
:101D50000320BDE8F0812068006836EA000004D066
:101D60000020B842D9D00020F3E70120F9E7FEE7D0
:101D700002E008C8121F08C1002AFAD17047704754
:101D8000002001E001C1121F002AFBD170470000B2
:101D9000FEF7A8FBFFF77AFCFFF748FAFFF7F2FB24
:101DA000FFF736FC012202490248FFF79BF9FEE7E4
:101DB000000000205000002048656C6C6F20776F99
:101DC000726C6421000000000000000000000000B0
:101DD00000000000010203040607080900000000DB
:101DE00001020304041E000800000020140000008B
:101DF000701D0008181E0008140000207C0400005C
:101E0000801D00080000000001000000100000001C
:081E1000000000000024F400B2
:04000005080001AD41
:00000001FF
