:020000040800F2
:1000000060050020C5010008CD010008CF010008EF
:10001000D1010008D3010008D5010008000000004C
:10002000000000000000000000000000D7010008F0
:10003000D901000800000000DB0100085D1F000876
:10004000DF010008DF010008DF010008DF01000810
:10005000DF010008DF010008DF010008DF01000800
:10006000DF010008DF010008DF010008DF010008F0
:10007000DF010008DF010008DF010008DF010008E0
:10008000DF010008DF010008DF010008DF010008D0
:10009000DF010008DF010008DF010008DF010008C0
:1000A000DF010008DF010008DF010008652000080B
:1000B000DF010008DF010008DF010008DF010008A0
:1000C000DF010008DF010008DF010008DF01000890
:1000D000DF010008DF010008DF010008DF01000880
:1000E000DF010008DF010008DF010008DF01000870
:1000F000DF010008DF010008DF010008DF01000860
:10010000DF010008DF010008DF010008DF0100084F
:10011000DF01000885230008DF010008DF01000877
:10012000DF010008DF010008DF010008DF0100082F
:10013000DF010008DF010008DF010008DF0100081F
:10014000DF010008DF010008DF010008DF0100080F
:10015000DF010008DF010008DF010008DF010008FF
:10016000DF010008DF010008DF010008DF010008EF
:10017000DF010008DF010008DF01000800000000C7
:10018000DF010008DF010008DF010008DF010008CF
:10019000DF010008DF010008DF010008DF010008BF
:1001A000DF010008DF010008DF010008DFF810D0E0
:1001B00000F0B6FA00480047D1300008AFF30080E5
:1001C000600500200648804706480047FEE7FEE736
:1001D000FEE7FEE7FEE7FEE7FEE7FEE7FEE7FEE7F7
:1001E00011200008AD0100082DE9F05F0546002050
:1001F00092469B4688460646814640241BE0284698
:1002000041464746224600F065F853465A46C01A12
:10021000914110D311461846224600F04CF82D1A91
:1002200067EB01084F4622460120002100F043F809
:1002300017EB00094E41201EA4F10104DFDC484603
:1002400031462A464346BDE8F09F0EB540F23341A1
:1002500002910021CDE900110A460B4600F059F841
:1002600003B000BD00F0004230F000400AD0C10DE4
:1002700001F56071C0F3160042EA0151C20840075F
:100280001143704700200146704730B50B460146C8
:1002900000202022012409E021FA02F59D4205D325
:1002A00003FA02F5491B04FA02F52844151EA2F1CF
:1002B0000102F1DC30BD202A04DB203A00FA02F111
:1002C000002070479140C2F1200320FA03F3194344
:1002D00090407047202A04DB203A21FA02F00021E6
:1002E000704721FA02F3D040C2F120029140084346
:1002F0001946704710B5141E73F1000408DA401C4B
:1003000041F1000192185B411A4301D120F0010034
:1003100010BD2DE9F04D92469B4611B1B1FA81F224
:1003200002E0B0FA80F220329046FFF7C4FF0446A4
:100330000F4640EA0A0041EA0B0153465A46084379
:1003400013D0114653EA010019D0C8F140025046BB
:10035000FFF7C0FF05460E46504659464246FFF796
:10036000AAFF084305D0012004E020463946BDE835
:10037000F08D0020054346EAE0762C4337430A9887
:100380006305E40AA0EB08000022FD0A44EA475492
:100390000A3002D500200146E9E70105101969413C
:1003A000DDE9084500196941BDE8F04DA2E72DE9F6
:1003B000FE4F804681EA0300C00F0C46009021F0FA
:1003C000004123F00045B8EB0200A94105D24046A8
:1003D000214690461C460B46024623F0004010433F
:1003E00047D0270DC7F30A00C3F30A510290401A01
:1003F000019040286BDAC3F3130040F4801B00988F
:10040000924620B10023D2EB030A63EB0B0B019859
:100410005946C0F140025046FFF74DFF06460D46D3
:1004200050465946019A00F08DF910EB08006141E1
:10043000002487EA115284EAE7731A4340D0009AF5
:1004400062B3019A012A4FEA075215DC001B61EBE7
:1004500002014FF0004202EA0752CDE90042001CBF
:1004600041F5801132462B46FFF753FF03B0BDE83C
:10047000F08F40462146F9E7001B61EB0201001CAA
:1004800041F5801300185B412018A2F5001747EBD7
:10049000030140EAD570B6196D4111E06D084FEACD
:1004A000360645EAC0754FEA0752001B61EB0201B0
:1004B000001C41F5801149084FEA300000195141F4
:1004C00032462B4603B0BDE8F04FFFF713BF00984C
:1004D000012240000023D0EB020263EBE07300989E
:1004E00021464FEAE074B8EB000061EB0401E9E754
:1004F00083F000435BE781F0004158E72DE9FE4FB0
:1005000081EA030404F0004421F0004100944FF01C
:10051000000B23F0004350EA01045ED052EA0304CA
:100520005BD0C3F30A54C1F30A552C44A4F2F3344C
:100530000194A0FB0254C1F3130141F48011C3F3F1
:10054000130343F4801301FB024400FB034E840AAF
:10055000970A44EA815447EA8357A4FB0768029547
:100560008D0A05FB07854FEA932C04FB0C542705E5
:10057000029D4FEA065847EA1637B5EB08056EEBC1
:10058000070C870E920E47EA811742EA8312A7FBF7
:100590000201B6EB0B0164EB00042B0D43EA0C33B4
:1005A0005E1844EB1C50DA465146E7FB0201C5F3E6
:1005B00013044FEA0B3343EA14534FEA0432019C0D
:1005C00043EA0603A4F10C040294009CCDE900B4B4
:1005D000FFF79FFE03B0BDE8F08F00200146F9E76A
:1005E0002DE9F04D81EA030404F0004B21F00045B1
:1005F00014464FF0000A23F0004150EA050220D0D3
:1006000054EA01021DD0C5F30A570246C5F313038D
:10061000C1F31300C1F30A5640F4801543F480136C
:10062000A7EB0608101BD64608F2FD3873EB050051
:1006300002D308F1010801E092185B41B8F1000F04
:1006400003DA00200146BDE8F08D00204FF4801150
:10065000064684460EE0171B73EB050705D3121BF5
:1006600063EB050306434CEA010C49084FEA3000EE
:1006700092185B4150EA0107EDD152EA030012D013
:1006800082EA040083EA0501084305D0101BAB4150
:1006900006D20122002306E000224FF0004302E0D0
:1006A0006FF0010253101AEB06004CEB085110EBEF
:1006B0000A0041EB0B01BDE8F04DFFF71BBEC1F393
:1006C0000A52C1F3130140F2FF3341F480119A4200
:1006D00002DA00200146704740F233439A42A2F208
:1006E000334202DC5242FFF7F5BDFFF7E4BD0000E4
:1006F00030B5041E71F1000404DB4FF000444042A9
:1007000064EB0101141E73F1000405DB1C464FF07D
:100710000043524263EB0403994208BF904230BD4C
:10072000064C074D06E0E06840F0010394E807003E
:1007300098471034AC42F6D3FFF73CFD84320008F2
:10074000A4320008202A06DBCB17203A41FA02F037
:1007500043EAE07306E041FA02F3D040C2F120021E
:10076000914008431946704790F83510022903D08C
:100770008021416501207047052180F8351000680F
:10078000016821F0010101600020704770B5044646
:1007900000F0FAF80546601C02D0044800780444D2
:1007A00000F0F2F8401BA042FAD370BD0800002010
:1007B0002DE9F84FDFF890B100224FF001084FF01B
:1007C000030A4FF00F090BF1040E00BF0B6808FA83
:1007D00002F42340A3426ED14D68022D01D0122DA8
:1007E0000ED1D50800EB850CDCF820505607F70E2B
:1007F00009FA07F6B5430E69BE402E43CCF82060D7
:10080000066855000F790AFA05FC07F0030726EA87
:100810000C06AF40374307604E68012E05D0022E0C
:1008200003D0112E01D0122E0ED18768CE6827EA90
:100830000C07AE403E4386604668A6430C79C4F37D
:100840000014944034434460C4688E6824EA0C0465
:10085000AE402643C6604C68E4006FD53B4C25682B
:1008600045F480452560246822F0030504F48044A3
:100870000094374C2E19D6F8084895072F0F09FA1F
:1008800007F5AC43334DA84201D100252EE0324D8F
:10089000A84201D1012529E0304DA84201D102250D
:1008A00024E02F4DA84201D103251FE02D4DA84281
:1008B00002D104251AE041E02B4DA84201D10525C3
:1008C00014E02A4DA84201D106250FE0284DA84288
:1008D00001D107250AE0274DA84201D1082505E0EE
:1008E000254DA84201D1092500E00A25BD40254338
:1008F000C6F80858DBF800405D464E689C43F60396
:1009000000D51C432C60DEF8004075464E689C43C1
:10091000B60300D51C432C600B4D08352C684E687F
:100920009C43F60200D51C432C60074D0C352C6807
:100930004E689C43B60200D51C432C60521C102A02
:10094000FFF444AFBDE8F88F003C0140443802405A
:100950000030014000000240000402400008024054
:10096000000C024000100240001402400018024037
:10097000001C024000200240002402400AB18161B4
:1009800070470904FBE700000148806870470000D9
:100990000800002070B5040004D094F83D00002544
:1009A00010B106E0012070BD84F83C50204600F0F4
:1009B00075F8242084F83D002068016821F00101C9
:1009C000016000F0F7F933492268B0FBF1F15160A2
:1009D000314A6368934206D94FF4967359434FF4F2
:1009E0007A73B1FBF3F12368491C19626168914283
:1009F0000BD84900B0FBF1F2C2F30B02042A01D27A
:100A0000042019E0B0FBF1F016E0A3689BB301EB02
:100A1000C10202EB0112B0FBF2F242F48042120575
:100A200030D04BB301EBC10202EB0111B0FBF1F08E
:100A300040F4804040F400402168C861D4E90701D7
:100A4000084321680860D4E90310084321688860DE
:100A5000D4E9050108432168C8602068016841F0B5
:100A6000010101602564202084F83D00256384F89D
:100A70003E50002070BD00E006E001EB4102B0FBFB
:100A8000F2F2CCE70120D7E701EB4101B0FBF1F036
:100A9000D0E7000040420F00A0860100F0B50068DA
:100AA000104987B088421AD140151224012500262A
:100AB00004278DE8F10069460B48FFF779FE28020C
:100AC0008DE8F10069460948FFF772FE08480168A1
:100AD00041F400010160006800F40000059007B0D7
:100AE000F0BD0000005C0040000802400000024031
:100AF00040380240024881680278114481607047A2
:100B0000080000200B4810B5016841F40071016035
:100B1000016841F480610160016841F48071016005
:100B2000032000F097F8002000F006F800F024F809
:100B3000002010BD003C024070B50D4D04464FF43E
:100B40007A712878B1FBF0F00A490968B1FBF0F03E
:100B500000F01BFB48B9102C07D200222146501E82
:100B600000F058F800206C6070BD012070BD0000DE
:100B700008000020140000201F4808B5016841F457
:100B800080410160006800F4804000901A48001F16
:100B9000016841F080510160006800F080500090D1
:100BA000072000F057F8002211466FF00B0000F00C
:100BB00031F8002211466FF00A0000F02BF80022F5
:100BC00011466FF0090000F025F800221146501F71
:100BD00000F020F800221146101F00F01BF8002240
:100BE0001146901E00F016F80022BDE8084011469C
:100BF000501E00F00FB800004438024000F01F0201
:100C0000012191404009800000F1E020C0F800116E
:100C100070470000F0B40E4B1B680C46C3F3022370
:100C2000C3F10705042D00D90425191D072901D298
:100C3000002300E0DB1E012606FA05F1491E2140D3
:100C400099409E40761E16403143F0BC01F076B9C3
:100C50000CED00E0064900F0070208684FF6FF03BC
:100C6000184040EA0220034A104308607047000021
:100C70000CED00E00000FA052DE9F0470E460500F6
:100C800065D0DFF81481D8F80000F7B200F00F004B
:100C9000B04207D288F80070D8F8000000F00F00CA
:100CA000B04254D128683D4C810712D5400703D586
:100CB000206840F4E05020602878000703D52068C1
:100CC00040F4604020602068A96820F0F0000843EC
:100CD00020602878C0072DD030496868083901287D
:100CE00012D0022813D0032811D0096889070029DF
:100CF0002DDA216821F0030101432160FFF744FE52
:100D0000814641F2883A0EE009688903EFE70968F5
:100D10008901ECE7FFF738FEA0EB0901514502D944
:100D20000320BDE8F0872068696800F00C00B0EB94
:100D3000810FEFD1D8F80010404601F00F01B14209
:100D400007D90770006800F00F00B04201D0012001
:100D5000E7E72878400705D52068E96820F4E050E7
:100D6000084320602878000706D52068296920F408
:100D7000604040EAC100206000F03CF82168084A69
:100D8000C1F30311515CC840064908600020FFF719
:100D9000D3FE0020C5E70000003C024008380240B6
:100DA0001432000814000020014800687047000059
:100DB000140000200448054900680968044AC1F38A
:100DC0008221515CC840704714000020083802405E
:100DD000243200080448054900680968044AC1F340
:100DE0004231515CC840704714000020083802406E
:100DF00024320008154810B5006810F00C021448A1
:100E000013D04110042A0FD0082A0ED10F4C241FF2
:100E10002268236802F03F025B0207D52068C0F316
:100E20008810A0FB010106E0084610BD2168C1F34F
:100E30008811A1FB00010023FFF7D6F92168C1F357
:100E40000141491C4900B0FBF1F010BD08380240D7
:100E50000024F4002DE9F84F050076D02878DFF85B
:100E6000F8B2BE4CC00749D0DBF800105846C1F3B9
:100E70008101012908D00068C0F3810002280AD14D
:100E8000201D0068400206D52068800336D56868BA
:100E90000028E2D032E06868B0F5803F10D0B0F5AD
:100EA000A02F206810D020F480302060206820F42B
:100EB000802020606868A0B1FFF766FD06460CE060
:100EC000206840F48030F4E740F480202060F7E7A9
:100ED000FFF75AFD801B642873D820688003F7D57C
:100EE0000CE0FFF751FD064605E000BFFFF74CFDA3
:100EF000801B6428F0D820688003F7D42878DFF8B6
:100F0000608280074FF000093ED5DBF8001058469C
:100F100011F00C0F09D00068C0F3810002280BD13A
:100F20008D48001F0068400206D42068800715D550
:100F3000E868012809D111E0E868B8B10120C8F8D3
:100F40000000FFF721FD064605E002E1FFF71CFD6A
:100F5000801B0228C0D820688007F7D5206829693F
:100F600020F0F80040EAC10020600DE0C8F80090D1
:100F7000FFF70AFD064604E0FFF706FD801B022886
:100F80001FD820688007F7D42878000722D5724E32
:100F9000744869696C3671B101210160FFF7F4FC96
:100FA000074604E0FFF7F0FCC01B022809D83068B0
:100FB0008007F7D50EE0C0F80090FFF7E5FC074684
:100FC00005E083E0FFF7E0FCC01B02287ED8306814
:100FD0008007F7D42878400768D5DFF87CA1002780
:100FE0000AF1380ADAF80000C0000BD4DAF8001071
:100FF00041F08051CAF80010DAF80000012700F033
:1010000080500090584E3068C00510D4306840F4CD
:1010100080703060FFF7B8FC009005E0FFF7B4FC8B
:101020000099401A022851D83068C005F6D54A4EBA
:10103000A868683601280FD00528306810D020F045
:1010400001003060306820F004003060A868B8B15A
:10105000FFF79AFC00900FE0306840F00100F4E7E1
:1010600040F004003060F7E7FFF78EFC0099411A6A
:1010700041F28830814264D830688007F4D50EE0B0
:10108000FFF782FC009007E0FFF77EFC0099411A11
:1010900041F28830814254D830688007F4D42FB1AF
:1010A000DAF8001021F08051CAF80010A869C0B326
:1010B000DBF80010C1F3810102294AD0022848461A
:1010C00007D0C8F86000FFF75FFC00E039E0054694
:1010D0003AE04746C8F86000FFF756FC064604E0D1
:1010E000FFF752FC801B02282BD820688001F7D420
:1010F000D5E907010843A96A1C4A490802EB0141E6
:101100006A6A41EA8211084395F82C1040EA0161AD
:101110001148001F016001203866FFF735FC0546C5
:1011200005E014E0FFF730FC401B022809D82068D6
:101130008001F7D50BE000BFFFF726FC401B02281B
:1011400002D90320BDE8F88F20688001F4D4002084
:10115000F8E70120F6E700000838024000380240B6
:1011600000004742800E4742007000400000FFFF31
:101170004FF0E0210428086903D020F00400086142
:10118000704740F00400FAE7704710B5401EB0F118
:10119000807F01D3012010BD4FF0E02460610F215A
:1011A000601700F0CBFE0020A06107202061002026
:1011B00010BD10B5FFF7E8FF10BD7047704730B5A0
:1011C00090F83820012A20D0012280F8382002230C
:1011D00080F8393003685C6824F070045C60036850
:1011E0005C680D682C435C6003689C6824F0800494
:1011F0009C6003689C6849680C439C6080F83920B7
:10120000002180F83810084630BD022030BD10B5EE
:10121000040003D094F8390010B107E0012010BD9C
:10122000002084F83800204600F00CF8022084F8F2
:101230003900211D206800F01BFF012084F83900CF
:10124000002010BD08B501681748814212D1174827
:10125000016841F0010101600068002200F0010016
:10126000009011461B20FFF7D5FCBDE808401B206D
:10127000FFF7C4BC0D48001FB1F1804F0BD00C4AE2
:10128000914207D1016841F002010160006800F05D
:101290000200009008BD016841F001010160006892
:1012A00000F00100F5E70000000001404438024072
:1012B0000004004070B5044690F83800012817D0AB
:1012C000012584F83850022084F8390020688268AB
:1012D00022F0770222F47F4282600868502837D0DB
:1012E0000DDC202859D005DC88B3102841D151E00D
:1012F000022070BD302853D040283AD13FE060280A
:101300002ED070280BD0B0F5805F03D0B0F5005F11
:101310002FD110E02068816821F0070115E0CB682B
:10132000D1E90121206800F003FF2168886840F0BE
:10133000770088601DE0CB68D1E90121206800F0CA
:10134000F7FE2068816841F48041816011E01EE071
:10135000CA684968206800F0F1FF5021206806E063
:10136000CA684968206800F0FAFF6021206800F030
:10137000E9FE84F83950002084F8380070BDCA684E
:101380004968206800F0DAFF40212068EFE700217B
:101390002068ECE710212068E9E720212068E6E7D3
:1013A00030212068E3E7704770B5044600680169A2
:1013B0004FF00005C943890715D4C168C94389079F
:1013C00011D4E91E01610120207620688069800720
:1013D000204602D0FFF7E7FF04E000F0C1F8204606
:1013E00000F043F9257620680169C943490717D4FD
:1013F000C168C943490713D46FF004010161022099
:1014000020762068806910F4407F204602D0FFF7E4
:10141000CAFF04E000F0A4F8204600F026F9257683
:1014200020680169C943090716D4C168C94309077F
:1014300012D46FF008010161042020762068C06991
:101440008007204602D0FFF7AEFF04E000F088F8E6
:10145000204600F00AF9257620680169C943C906CB
:1014600017D4C168C943C90613D46FF010010161D4
:10147000082020762068C06910F4407F204602D002
:10148000FFF791FF04E000F06BF8204600F0EDF864
:10149000257620680169C943C90708D1C168C943D5
:1014A000C90704D1891E0161204600F0DFF82068D9
:1014B0000169C943090609D4C168C943090605D4AD
:1014C0006FF0800101612046FFF777FE2068016917
:1014D000C943490609D4C168C943490605D46FF018
:1014E00040010161204600F0E3F820680169C9432A
:1014F00089060BD4C168C943890607D46FF020015F
:1015000001612046BDE87040FFF758BE70BD000085
:1015100000B502680021022085B0B2F1804F0FD0E3
:101520000C4B9A420AD110220092CDE90101CDE97B
:1015300003100948694600BFFFF73AF905B000BD3E
:1015400020220092CDE901010120CDE90310694676
:101550000248F1E70004004000040240000002409D
:10156000704770B5044690F838000D4601280DD03C
:10157000012684F83860022084F8390042B1042A38
:1015800018D0082A2AD00C2A4DD139E0022070BD8B
:10159000206800F0DFFD2068816941F00801816169
:1015A0002068816921F004018161206881692A69CC
:1015B000114311E0206800F0F9FD2068816941F4D1
:1015C000006181612068816921F480618161206806
:1015D00081692A6941EA0221816124E0206800F0E2
:1015E00017FE2068C16941F00801C1612068C16926
:1015F00021F00401C1612068C1692A69114311E029
:10160000206800F035FE2068C16941F40061C161C5
:101610002068C16921F48061C1612068C1692A69BB
:1016200041EA0221C16184F83960002084F8380061
:1016300070BD10B5040003D094F8390010B107E074
:10164000012010BD002084F83800204600F00CF87E
:10165000022084F83900211D206800F009FD0120D6
:1016600084F83900002010BD70477047704770B58E
:10167000044690F83800012818D0012584F8385025
:10168000022084F83900204600F01AFE2068C16864
:1016900021F04001C1602068C16821F48041C1602F
:1016A00084F83950002084F8380070BD022070BDE5
:1016B0007047704770B5026804461068D168536976
:1016C00010F00F0F50D003F0010501F49076354370
:1016D0005DD0C20705D0CA0503D5E26B42F0010216
:1016E000E263420705D5DA0703D0E26B42F002025B
:1016F000E263820705D5DA0703D0E26B42F0040209
:10170000E263020705D5DA0703D0E26B42F0080274
:10171000E263E26B002A33D0800604D5880602D546
:10172000204600F04BFE20684069E16BC0F380105A
:10173000090700D428B3204600F032FE2068416932
:1017400049061AD5416921F040014161606BA0B1A1
:101750001B490165606BFFF707F8002810D0606B2C
:10176000016DBDE870400847830610D58B060ED585
:101770002046BDE8704000F021BE2046FFF799FFEB
:1017800070BD2046FFF795FF0020E06370BD0306A3
:1017900006D50B0604D52046BDE8704000F0AABF70
:1017A0004006F3D54806F1D5D168204621F0400126
:1017B000D160202184F8391000F005F970BD0000D7
:1017C0009123000870B5040004D094F83900002576
:1017D00010B106E0012070BD84F83850204600F0BA
:1017E00023F8242084F839002068C16821F40051CE
:1017F000C160204600F028FE2068016921F4904174
:1018000001612068416921F02A0141612068C168B5
:1018100041F40051C160E563202084F8390084F868
:101820003A00002070BD0000F0B50068144987B090
:10183000884223D11348016841F480110160006897
:10184000022400F4801005904FF4805001250326F7
:1018500008278DE8F10069460B48FEF7A9FF042030
:101860008DE8F10069460948FEF7A2FF0022114603
:101870003520FFF7CFF93520FFF7C0F907B0F0BDED
:10188000005000404038024000080240000C024076
:1018900090F83A30202B1DD1D1B1CAB190F8383030
:1018A000012B17D081628285C2850021C16322226B
:1018B00080F83A2080F8381001684A6942F0010245
:1018C0004A610068C16841F49071C16000207047AE
:1018D000012070470220704710B50068084988420F
:1018E0000DD14FF0FF3301220649074800F00EF8F2
:1018F000BDE81040012203490348FFF7C9BF10BDEE
:101900000050004000000020200100202DE9F84395
:10191000044690F839001F4616460D46202850D13F
:10192000A5B19EB194F8380001284AD0012084F86E
:1019300038004FF00008C4F83C80212084F83900BA
:10194000FFF722F8A6848146E68426E00120BDE860
:10195000F883E08C401EE084A0684B46B0F5805FC1
:101960004FF000024FF080012046009703D000F0B6
:10197000F2FEE8B90DE000F0EEFEC8B92888216853
:10198000C0F308004860206908B16D1C05E0AD1C7B
:1019900003E0216815F8010B4860E08C0028D8D1DD
:1019A0004B46002240212046009700F0D4FE08B1AB
:1019B0000320CCE7202084F8390084F83880002008
:1019C000C5E70220C3E770472DE9F04FB74887B05D
:1019D00000240068B54940F004000860086800F081
:1019E00004000590086840F020000860086800F0D6
:1019F00020000590086840F080000860086800F04A
:101A0000800005900846006840F001000860086802
:101A100000F001000590086840F0020008600868C6
:101A200000F002000590086840F040000860086877
:101A300000F0400005900846006840F01000086083
:101A4000086800F010000590086840F00800086081
:101A50000868002200F00800059016219448FEF75F
:101A60008DFF002280219348FEF788FF4FF4405BF2
:101A7000002259469048FEF781FF00224FF4C041F2
:101A80008E48FEF77BFF4FF63F000225CDE90005AB
:101A900002AA03260C27DFF8289282E8D0006946C4
:101AA0004846FEF785FE4FF460700090CDE9015482
:101AB0000520CDE9034069464846FEF779FE6802F5
:101AC0000090CDE901544FF00E08CDE90348694676
:101AD0004846FEF76DFE02AA4FF0010982E8D000E9
:101AE000CDE9009569467248FEF762FE1620009027
:101AF000CDE9019469466E480394FEF759FEDFF87C
:101B0000C4A148F20700CDE9000A69460294694879
:101B1000FEF74EFE41F658000090CDE90154CDE9A4
:101B2000034869466348FEF743FE80200090CDE9F4
:101B3000019469465F480394FEF73AFE2020CDE900
:101B4000000A694602945A48FEF732FE0096CDE933
:101B500001544FF0090ACDE9034A69465A48FEF795
:101B600027FE0420CDE90004694657480294FEF799
:101B70001FFE48F23310CDE9000502AA694682E84B
:101B8000D0004E48FEF714FE4FF68370CDE90005F5
:101B900002AA694682E8D0004C48FEF709FE4FF4DD
:101BA00070600090CDE90154CDE90348694646488C
:101BB000FEF7FEFD4FF450400090CDE90154CDE911
:101BC000034769464048FEF7F3FD2803CDE90004CA
:101BD00069463D480294FEF7EBFD4CF20370CDE9F7
:101BE000000502AA694682E8D0003348FEF7E0FD0E
:101BF000A802CDE9000469462F480294FEF7D8FDFB
:101C0000CDF800B0CDE9019469462B480394FEF766
:101C1000CFFD4FF40C600090CDE90154CDE90348AD
:101C200069462648FEF7C4FD4FF498600090CDE960
:101C30000154CDE9034869461D48FEF7B9FD70021D
:101C4000CDE9000502940720CDE9036069461948F3
:101C5000FEF7AEFD48200090CDE90154CDE90348E0
:101C600069461548FEF7A4FD4FF4A0500090CDE959
:101C70000154CDE9034A69461048FEF799FD700307
:101C80000090CDE9019469460C480394FEF790FD5D
:101C90006020CDE9000502AA694682E8D0000A4822
:101CA000FEF786FD07B0BDE8F08F00003038024037
:101CB0000008024000000240000C024000180240F0
:101CC0000014024000001210000402400010024004
:101CD0000E4810B50C4901600D49416000214FF4D8
:101CE00080428160C0E9031241618161C16101628A
:101CF000FEF750FE002805D0BDE81040422105A0A7
:101D000000F05BBD10BD0000005C0040180000202A
:101D1000A08601002E2E2F5372632F6932632E632B
:101D20000000000010B51D488CB01B490024C0E91C
:101D300000140915C0E9024104614461FFF767FA24
:101D400018B1422116A000F038FD4FF480500590E4
:101D500005A91248FFF7AEFA18B1482110A000F00B
:101D60002CFD0420CDE9000469460C48FFF77FFCF8
:101D700018B14F210AA000F020FD099409A90748D5
:101D80000A94FFF71CFA002803D0562104A000F0A3
:101D900014FD0CB010BD0000000001406C000020DC
:101DA0002E2E2F5372632F74696D2E630000000076
:101DB00010B522488EB04FF080410024C0E90014D5
:101DC0008460C4600461FFF722FA18B168211CA086
:101DD00000F0F3FC1948FFF72CFC18B16D2118A096
:101DE00000F0EBFC0720CDE9070407A91348FFF733
:101DF0003EFC18B1742112A000F0DFFC0C940CA979
:101E00000E480D94FFF7DBF918B17B210CA000F010
:101E1000D4FC6020CDE90004029400226946074802
:101E20000494FFF79EFB18B1842105A000F0C5FCC7
:101E30000248FFF76DFB0EB010BD0000A8000020A7
:101E40002E2E2F5372632F74696D2E6300000000D5
:101E500010B522488EB020490024C0E900148460E7
:101E6000C4600461FFF7D3F918B198211CA000F0F9
:101E7000A4FC1A48FFF7DDFB18B19D2118A000F063
:101E80009CFC0720CDE9070407A91448FFF7EFFBE6
:101E900018B1A42112A000F090FC0C940CA90F48DA
:101EA0000D94FFF78CF918B1AB210DA000F085FC63
:101EB0006020CDE90004029400226946074804949A
:101EC000FFF74FFB18B1B42105A000F076FC0348E2
:101ED000FFF71EFB0EB010BD00040040E400002020
:101EE0002E2E2F5372632F74696D2E630000000035
:101EF0000D4810B50B4901604FF4165141600021A7
:101F000081600C22C160C0E904128161C161FFF7E8
:101F100059FC002805D0BDE81040412103A000F085
:101F20004CBC10BD00500040200100202E2E2F532D
:101F300072632F75736172742E6300000907090EB6
:101F4000002806DA00F00F0000F1E02080F8141DF0
:101F5000704700F1E02080F80014704710B5FEF7DC
:101F6000C9FDBDE81040FFF724B9000030B5264890
:101F700093B00024016841F080510160006800F0D6
:101F8000805011902148016821F4404141F4804182
:101F900001600068022500F4404011900120039088
:101FA00010200490009506950820CDE907403220C6
:101FB000099004200A9007200B906846FEF74AFF1C
:101FC00000B1FEE70F20CDE90C054FF4C050CDE97C
:101FD0000E404FF4A050109000210CA8FEF74CFECC
:101FE00000B1FEE7FEF7E0FE4FF47A71B0FBF1F0CE
:101FF000FFF7CBF80420FFF7BBF800221146501E74
:10200000FEF708FE13B030BD4038024000700040BB
:102010001048016841F4700101600F48016841F007
:10202000010101600C4A00210832116002680B4B6B
:102030001A400260031D0A4A1A60026822F48022D4
:10204000026005480C30016002495806803908607A
:102050007047000088ED00E000380240FFFFF6FE08
:10206000103000240148FFF79FB900006C000020E9
:10207000F0B50268234B244D244E254F254C4FF0DC
:10208000804C984209D0604507D0A84205D0B042A4
:1020900003D0B84201D0A04204D122F0700E4A68A9
:1020A00042EA0E0298421BD0604519D0A84217D0D0
:1020B000B04215D0B84213D0A04211D0164DA8425C
:1020C0000ED0164DA8420BD0154DA84208D0154D84
:1020D000A84205D0144DA84202D0144DA84203D105
:1020E00022F44075CA682A4302608A68C2620A689C
:1020F0008262984201D0A04201D1096901630121A5
:102100004161F0BD000001400004004000080040B3
:10211000000C004000040140004001400044014028
:102120000048014000180040001C00400020004012
:1021300010B5846842EA032224F47F440A43224310
:10214000826010BD826822F070020A4342F00701EB
:102150008160704730B5026A22F001020262026AB1
:10216000436884690D6824F07304254322F0020457
:102170008A6822430B4CA04202D00B4CA0420BD1E8
:1021800022F00804CA6823F4407322434C6922F009
:1021900004021C438B6923434360856149684163A2
:1021A000026230BD000001400004014030B5026A07
:1021B00022F010020262026A436884690D6824F406
:1021C000E64444EA05248D6822F0200242EA051222
:1021D0000D4DA84202D00D4DA8420ED1CD6822F07F
:1021E000800242EA05124D6923F4406343EA850305
:1021F0008D6922F0400243EA8503436084614968A7
:102200008163026230BD0000000001400004014013
:1022100030B5026A22F480720262036A4268C469BD
:1022200023F4007324F073050C682C438D6843EA93
:1022300005230D4DA84202D00C4DA8420ED1CD6809
:1022400023F4006343EA05234D6922F4405242EA35
:1022500005128D6923F4806342EA05124260C4616D
:102260004968C163036230BD0000014000040140C1
:1022700030B5026A22F480520262046A4268C3697D
:102280000D6823F4E64343EA05238D6824F40054E3
:1022900044EA0534084DA84202D0084DA84204D1B2
:1022A0004D6922F4804242EA85124260C361496866
:1022B0000164046230BD00000000014000040140E0
:1022C00030B403689A6822F070044A68224322F00E
:1022D00007040A6822439A604A6812F00F0F1FD160
:1022E0001211082A1CD2DFE802F01B1B1B1B0B1D5E
:1022F00023040B69D1E90221006830BCFFF718BF45
:102300000268136A146A24F0010414620268946972
:10231000096924F0F00444EA011191610068036244
:1023200030BC70470A698968006830BC00F006B8A4
:102330000A698968006830BC00F011B810B5036AFA
:10234000046A24F001040462846924F0F00444EA7D
:10235000021423F00A020A438461026210BD10B520
:10236000036A23F0100303628369046A23F4704351
:1023700043EA023224F0A00343EA011182610162C0
:1023800010BD00000148FFF795B9000020010020B2
:1023900010B5806B0021C185C184FFF78AF910BD9B
:1023A0000168CA6822F49072CA6001684A6922F022
:1023B00001024A61202180F83A10704710B590F868
:1023C0003A10222901D0022010BD8168B1F5805F4A
:1023D00011D00169002901681FD0496801F07F030D
:1023E000816A4A1C82620B70C18D491E0904090C66
:1023F000C18518D026E00269816A002A0268526805
:1024000005D0D2B20A80816A491C8162ECE7C2F32E
:1024100008020A80816A891CF7E74A68816A4B1CB6
:1024200083620A70E0E70168CA6822F49072CA60A9
:1024300001684A6922F001024A61202180F83A10BD
:10244000FFF74AFA002010BD2DE9F041044600686C
:10245000016921F44052E168114301612168C868B3
:1024600049F20C6290432369A268E5691A436369E3
:102470002B431A430243CA602168486920F4407222
:10248000A06910434861E1696425B1F5004F9748A0
:10249000974A21684FF032083FD0914201D08142E3
:1024A0007CD1FEF797FC00EBC00101EB00106168E6
:1024B0008900B0FBF1F6FEF78DFC00EBC00101EBEB
:1024C000001061688900B0FBF1F0B0FBF5F06FF02F
:1024D0001801484306EB800108EB0110B0FBF5F052
:1024E00000F0F006FEF776FC00EBC00101EB0010F7
:1024F00061688900B0FBF1F0B0FBF5F006EB001667
:10250000FEF768FC00EBC00101EB00106168890078
:10251000B0FBF1F7FEF75EFCD2E0914201D08142C0
:102520003DD1FEF757FC00EBC00101EB00106168E4
:102530004900B0FBF1F0B0FBF5F00601FEF74AFCF4
:1025400000EBC00101EB001061684900B0FBF1F73E
:10255000FEF740FC00EBC00101EB00106168490090
:10256000B0FBF1F0B0FBF5F06FF01801484307EB5A
:10257000800108EBC100B0FBF5F000F0F80006EBBD
:102580004006FEF727FC00EBC00101EB001061687C
:102590004900B0FBF1F7FEF71DFC3CE055E0FEF70B
:1025A00009FC00EBC00101EB001061684900B0FBC1
:1025B000F1F0B0FBF5F00601FEF7FCFB00EBC0010B
:1025C00001EB001061684900B0FBF1F7FEF7F2FB88
:1025D00000EBC00101EB001061684900B0FBF1F0B5
:1025E000B0FBF5F06FF01801484307EB800108EBF2
:1025F000C100B0FBF5F000F0F80006EB4006FEF776
:10260000D9FB00EBC00101EB001061684900B0FB91
:10261000F1F7FEF7CFFB00EBC00101EB00106168A2
:102620004900B0FBF1F0B0FBF5F06FF01801484342
:1026300007EB800108EBC100B0FBF5F000F00700EC
:10264000216830448860BDE8F081FEF7B3FB00EB01
:10265000C00101EB001061688900B0FBF1F6FEF7E4
:10266000A9FB00EBC00101EB001061688900B0FB21
:10267000F1F0B0FBF5F06FF01801484306EB800174
:1026800008EB0110B0FBF5F000F0F006FEF792FB4E
:1026900000EBC00101EB001061688900B0FBF1F0B4
:1026A000B0FBF5F006EB0016FEF784FB00EBC00173
:1026B00001EB001061688900B0FBF1F7FEF77AFBCF
:1026C00000EBC00101EB001061688900B0FBF1F084
:1026D000B0FBF5F06FF01801484307EB800108EB01
:1026E0000110B0FBF5F000F00F00A9E70014014065
:1026F0000010014090F83910212901D002207047C4
:102700008168B1F5805F016A0BD04A1C02620268E1
:1027100009785160C18C491E0904090CC1840ED08E
:1027200017E009880268C1F30801516001690029B6
:10273000016A02D0491C0162ECE7891CFBE70168D1
:10274000CA6822F08002CA600068C16841F0400196
:10275000C160002070472DE9F041984617460E46AB
:102760000446069D1DE0681C1BD02DB1FEF70CF938
:10277000A0EB0800A84214D92068C16821F4D071E8
:10278000C1602068416921F001014161202084F885
:10279000390084F83A00002084F838000320BDE8AE
:1027A000F0812068006836EA000004D00020B842BA
:1027B000D9D00020F3E70120F9E7FEE70FB4084B7A
:1027C00010B504A902AA039800F0DEF8044602A995
:1027D000002000F05CFC204610BC5DF814FB0000FB
:1027E0008F30000802E008C8121F08C1002AFAD181
:1027F00070477047002001E001C1121F002AFBD181
:10280000704700002DE9FF5F82B00021DDE9043050
:10281000020DDDF840B0034318D044F61050A2F288
:10282000FF3242431514119801281FD0A5EB0B006D
:10283000401C5FEA000A4FF000064E4FDFF8389167
:10284000B046504615D5CAF1000413E01198012492
:102850004AA3012801D16FEA0B010298119AC0E93D
:102860000031C0E9024206B0BDE8F09FCBF10000A4
:10287000DFE704460021404A491842EB0450CDE905
:10288000001012E0E00707D032463B46404649467A
:10289000FDF734FE8046894632463B4610461946CF
:1028A000FDF72CFE06460F466410002CEAD1DDE948
:1028B0000401DDE90023BAF1000F06DAFDF71EFE80
:1028C00042464B46FDF71AFE05E0FDF789FE4246FB
:1028D0004B46FDF785FE04460E460022284BFDF7C9
:1028E00007FF03D84FF0FF30014607E00022254BD9
:1028F00020463146FDF75BFDFDF7E1FE102409E0BF
:10290000002C0ADB0A220023FDF76EFC039B303209
:102910001A55641E50EA0102F2D1641C039AC4F1F4
:1029200011031444119A012A03D0012208430DD146
:102930000AE0084304D000204FF0110B119072E719
:10294000A3EB0B056D1E0DE05B4504DD4FF00002AF
:1029500005F1010504E003DA4FF00002A5F10105DD
:10296000002AECD002981199C0E90231C0E9004573
:1029700079E70000000014400000F03F3000000044
:102980000000F0430000E03F2DE9FF4F95B09A466C
:10299000884606460025EEE1252877D10024274603
:1029A000F94A0121039400E0044316F8013F203B5B
:1029B00001FA03F01042F7D130782A2811D06FF0D5
:1029C0002F033078A0F13002092A16D8039A44F078
:1029D000020402EB820203EB42021044761C0390D5
:1029E000EFE758F8042B0392002A03DA504244F42C
:1029F0000054039044F00204761C30782E2816D13F
:102A000016F8010F44F004042A280DD06FF02F02AD
:102A10003078A0F13003092B09D807EB870302EBCC
:102A20004303C718761CF3E758F8047B761C30780C
:102A30006C280FD006DC4C2817D068280DD06A28E7
:102A400014D104E0742810D07A280FD10DE044F49A
:102A500000140AE044F4801401E044F44014727855
:102A6000824202D104F58014761C761C30786628E8
:102A70000BD013DC582877D009DC002875D0452806
:102A8000F6D04628F4D047281AD193E118E06328FD
:102A900035D0642879D0652812D18BE1702873D0A5
:102AA00008DC6728F1D069286FD06E280DD06F2818
:102AB00006D1ACE073282CD0752874D0782853D078
:102AC0005246179990476D1C54E1C4F302500228F6
:102AD00009D003280DD0D8F8001004280DD00D60BF
:102AE00008F1040846E1D8F80010EA17C1E90052DD
:102AF000F6E7D8F800100D80F2E70D70F0E718F84F
:102B0000041B8DF8001000208DF80100EB46012019
:102B100003E058F804BB4FF0FF3061074FF00001AD
:102B200002D40DE009F101018946B9420FDA81456D
:102B3000F8DB1BF809100029F4D108E009F10101C4
:102B400089468142FADB1BF809100029F6D1039867
:102B50005346A0EB090721463846179A00F080FA41
:102B6000284400EB090507E044E008E10DE01BF80C
:102B7000010B524617999047B9F10109F7D2534614
:102B800021463846179AF2E039E00A21C4F302528E
:102B90004FF0000B0091022A06D058F8040BC11721
:102BA000032A09D00AE023E008F1070020F0070219
:102BB000F2E80201904605E000B2C117042A01D1F3
:102BC00040B2C117002906DA0A460021404261EBF3
:102BD00002012D2202E0220504D52B228DF80420CB
:102BE000012203E0E20701D02022F7E7914657E0F7
:102BF0000A2100E010214FF0000B00910BE01021A2
:102C00004FF0000B44F004040827009103E0082073
:102C10004FF0000B0090C4F30252022A05D058F87E
:102C2000040B0021032A08D008E008F1070020F077
:102C30000702F2E80201904603E080B2042A00D1C4
:102C4000C0B24FF0000922072AD53278702A07D087
:102C5000DDF800C08CF0100C5CEA0B0C05D00EE027
:102C600040228DF80420012208E050EA010306D03A
:102C700030238DF804308DF8052002229146009B08
:102C800083F0080353EA0B030AD150EA010201D191
:102C9000620705D530228DF804204FF001097F1E10
:102CA0003278582A04D039A20C920CAA02920BE076
:102CB0003BA2F9E75B46009AFDF796FA0C9B9B5CFA
:102CC000029A521E0292137050EA0102F2D1029847
:102CD00004A9081A00F1200B600702D524F48034FF
:102CE00000E001275F4502DDA7EB0B0000E00020BC
:102CF00000EB0B01009003984944401A0390E00355
:102D000006D453462146179A039800F0A9F90544C2
:102D1000002706E001A85246C05D179990476D1C38
:102D20007F1C4F45F6DBE0030CD553462146179A2E
:102D3000039800F095F9054404E0302052461799B5
:102D400090476D1C0099481E00900029F5DC08E0B2
:102D50000298029952460078491C029117999047AF
:102D60006D1CBBF10001ABF1010BF1DC5BE100F08C
:102D700065F90544761C307800287FF40DAE19B053
:102D80002846BDE8F08F00000928010030313233B9
:102D90003435363738396162636465660000000097
:102DA0003031323334353637383941424344454681
:102DB00000000000600700D4062708F1070020F09B
:102DC0000700F0E80223804603F0004C5FEA0C00A5
:102DD00001D097A009E0200501D596A005E0E00705
:102DE00001D095A001E0AFF24C001390307823F0B1
:102DF000004365280CD006DC452809D046281DD0A4
:102E000047287FD13BE0662818D067287AD136E082
:102E10000021112F01DB112000E0781CCDE9000119
:102E200004A90CA8FFF7EEFCDDE90D010C9A4FF0A8
:102E3000000B07F10109109200914EE04FF00040A5
:102E40000097CDE9011004A90CA8FFF7DBFCDDE930
:102E50000D020C9B0F994FF0000B914610930092BE
:102E600011B9791C00EB0109B7EB090003D4C0F1DB
:102E7000FF3B07F10109A9EB0700019042E0012F98
:102E800000DA01270021112F01DD112000E0384672
:102E9000CDE9000104A90CA8FFF7B4FCDDE90D01A0
:102EA0000C9A00914FF0000BB946109221070FD4F5
:102EB000009A4A4503DA914601E0A9F10109B9F106
:102EC000010F05DD109AA9F10101515C3029F4D000
:102ED000B84202DA10F1040F03DA0121CDE9011042
:102EE00010E0002803DC8344A9EB000102E0411C50
:102EF000494500DD8946A0EB0B00401C01904FF0D6
:102F000000400290200705D40198484502DB4FF0AD
:102F1000FF30019000208DF84B0002980DF14B0717
:102F2000B0F1004F25D002200C902B200D9002987C
:102F300000280CDA404202902D200D9007E00A2173
:102F40000298FDF7A2F93031029007F8011D0C99A3
:102F5000481E0C900029F2DC02980028EFD1791E5F
:102F60000D980870307800F0200040F0450007F818
:102F7000020D11A8C01BC01D02901398007800B16B
:102F8000012000EB0901019801EBE0710298014476
:102F90000398401A401E0390E00306D4534621468E
:102FA000179A039800F05CF805441398007818B15C
:102FB0005246179990476D1CE00323D5534621468E
:102FC000179A039800F04CF805441BE0BBF1000F82
:102FD00007DB0098584504DD1098179910F80B008E
:102FE00001E0179930205246904701980BF1010BF0
:102FF000401E05F10105019004D12E20524617997B
:1030000090476D1CB9F10001A9F10109DEDC05E072
:1030100017F8010B5246179990476D1C0299481EEC
:1030200002900029F4DC53462146179A03989EE645
:103030002D0000002B000000200000002DE9F041D1
:10304000044600251E461746880404D405E0394688
:103050002020B0476D1C641EF9D52846BDE8F081DC
:103060002DE9F041044600251E469046C80301D5CF
:10307000302700E02027880404D505E04146384683
:10308000B0476D1C641EF9D52846BDE8F0810A687A
:10309000531C0B6010707047D0ED060A90ED070AC4
:1030A000002930EE801A90ED080A31EE001A80ED0A
:1030B000001AB0EE001A50EE410AC0ED010A80ED90
:1030C000020A03D00021C160016141617047000024
:1030D0002DED028BB6B0FDF715FDFEF747FFFEF7AD
:1030E00073FCFEF71FFEFEF703FFFEF7F1FDFEF790
:1030F0005FFEFEF7ADFE01223F494048FEF7C8FBE8
:10310000F3EE040A9FED3F0ACDED0C0A8DED0D0A9A
:10311000DFED3B8ACDED0E0A012106A8FFF7BCFFCB
:10312000DFF8D4B0DDED090A9DED061ABBF80210F8
:10313000BBF804A0DDED0A1AA1EB0A0000EE100AAC
:1031400088463149B8EEC08A9DED070AD94620EE7F
:10315000200A01EE080A9DED081A01EE210A9DEDF4
:103160000B1ACDED0A0A8DED098A30EE010A10EE38
:10317000100A8DED0B0A884202DD9FED240A06E05D
:10318000B5EEC00AF1EE10FA01D2B0EE680A10EE08
:10319000100AFDF767F806460F4618EE100AFDF70D
:1031A00061F804460D46CB464046FDF74EF8804692
:1031B00089465046FDF749F80DF1080C41EC100B1B
:1031C0008CE8F00053EC102B11490FA8CDE90089D1
:1031D000FFF7F4FA4FF0FF3396220FA90748FEF7E6
:1031E00095FB40F6C410FDF7D1FABBF80200401C75
:1031F000ABF8020096E7000000000020200100204C
:1032000000000000CDCCCC3C0000C8420000C84209
:103210002C3200080000000000000000010203043E
:1032200006070809000000000102030445787065E4
:10323000637465643A20202025322E336620430AC9
:1032400041637475616C3A202020202025322E3392
:103250006620430A4572726F723A20202020202097
:1032600025322E336620430A4475747920637963CE
:103270006C653A2025332E32662025250A2D2D2D0A
:103280002D0A0000A43200080000002018000000F1
:10329000E4270008BC3200081800002048050000A0
:1032A000F4270008000014003200000001000000B4
:0C32B00010000000000000000024F400EA
:04000005080001AD41
:00000001FF
