:020000040800F2
:1000000058060020C1010008C9010008CB01000802
:10001000CD010008CF010008D10100080000000058
:10002000000000000000000000000000D3010008F4
:10003000D501000800000000D70100086D28000865
:10004000DB010008DB010008DB010008DB01000820
:10005000DB010008DB010008DB010008DB01000810
:10006000DB010008DB010008DB010008DB01000800
:10007000DB010008DB010008DB010008DB010008F0
:10008000DB010008DB010008DB010008DB010008E0
:10009000DB010008DB010008DB010008DB010008D0
:1000A000DB010008DB010008DB010008DB010008C0
:1000B000DB010008DB010008DB010008DB010008B0
:1000C000DB010008DB010008DB010008DB010008A0
:1000D000DB010008DB010008DB010008DB01000890
:1000E000DB010008DB010008DB010008DB01000880
:1000F000DB010008DB010008DB010008DB01000870
:10010000DB010008DB010008DB010008DB0100085F
:10011000DB010008B92C000891290008DB01000868
:10012000DB010008DB010008DB010008DB0100083F
:10013000DB010008DB010008DB010008DB0100082F
:10014000DB010008DB010008DB010008DB0100081F
:10015000DB010008DB010008DB010008DB0100080F
:10016000DB010008DB010008DB010008DB010008FF
:10017000DB010008DB010008DB01000800000000D3
:10018000DB010008DB010008DB010008DB010008DF
:10019000DB010008DB010008DB010008DB010008CF
:1001A000DB010008DB010008DB010008DFF80CD0F0
:1001B00000F04AFA00480047693D00085806002050
:1001C0000648804706480047FEE7FEE7FEE7FEE7F1
:1001D000FEE7FEE7FEE7FEE7FEE7FEE73D29000853
:1001E000AD0100082DE9F05F0546002092469B46D0
:1001F00088460646814640241BE02846414647463D
:10020000224600F058F853465A46C01A914110D37E
:1002100011461846224600F03FF82D1A67EB0108F8
:100220004F4622460120002100F036F817EB000966
:100230004E41201EA4F10104DFDC484631462A4627
:100240004346BDE8F09F00F0004230F000400AD085
:10025000C10D01F56071C0F3160042EA0151C208F8
:1002600040071143704700200146704730B50B46E8
:10027000014600202022012409E021FA02F59D42D6
:1002800005D303FA02F5491B04FA02F52844151EAA
:10029000A2F10102F1DC30BD202A04DB203A00FA91
:1002A00002F1002070479140C2F1200320FA03F3CD
:1002B000194390407047202A04DB203A21FA02F0CB
:1002C0000021704721FA02F3D040C2F12002914090
:1002D0000843194670472DE9FE4F804681EA030026
:1002E000C00F0C46009021F0004123F00045B8EB10
:1002F0000200A94105D24046214690461C460B46C5
:10030000024623F00040104347D0270DC7F30A00F0
:10031000C3F30A510290401A019040286BDAC3F3EC
:10032000130040F4801B0098924620B10023D2EBCA
:10033000030A63EB0B0B01985946C0F1400250468B
:10034000FFF7AAFF06460D4650465946019A00F0AF
:100350008DF910EB08006141002487EA115284EA0C
:10036000E7731A4340D0009A62B3019A012A4FEA18
:10037000075215DC001B61EB02014FF0004202EA5C
:100380000752CDE90042001C41F5801132462B4650
:1003900000F08DF903B0BDE8F08F40462146F9E743
:1003A000001B61EB0201001C41F5801300185B414A
:1003B0002018A2F5001747EB030140EAD570B619E3
:1003C0006D4111E06D084FEA360645EAC0754FEA07
:1003D0000752001B61EB0201001C41F58011490826
:1003E0004FEA30000019514132462B4603B0BDE8B8
:1003F000F04F00F04DB90098012240000023D0EBEF
:10040000020263EBE073009821464FEAE074B8EB18
:10041000000061EB0401E9E783F000435BE781F052
:10042000004158E72DE9FE4F81EA030404F000443F
:1004300021F0004100944FF0000B23F0004350EAFC
:1004400001045ED052EA03045BD0C3F30A54C1F343
:100450000A552C44A4F2F3340194A0FB0254C1F3D6
:10046000130141F48011C3F3130343F4801301FB20
:10047000024400FB034E840A970A44EA815447EA87
:100480008357A4FB076802958D0A05FB07854FEA91
:10049000932C04FB0C542705029D4FEA065847EAAB
:1004A0001637B5EB08056EEB070C870E920E47EA80
:1004B000811742EA8312A7FB0201B6EB0B0164EB42
:1004C00000042B0D43EA0C335E1844EB1C50DA4653
:1004D0005146E7FB0201C5F313044FEA0B3343EA2D
:1004E00014534FEA0432019C43EA0603A4F10C04BE
:1004F0000294009CCDE900B400F0D9F803B0BDE847
:10050000F08F00200146F9E72DE9F04D81EA030460
:1005100004F0004B21F0004514464FF0000A23F090
:10052000004150EA050220D054EA01021DD0C5F373
:100530000A570246C5F31303C1F31300C1F30A5669
:1005400040F4801543F48013A7EB0608101BD64631
:1005500008F2FD3873EB050002D308F1010801E051
:1005600092185B41B8F1000F03DA00200146BDE8A4
:10057000F08D00204FF48011064684460EE0171BD4
:1005800073EB050705D3121B63EB050306434CEA27
:10059000010C49084FEA300092185B4150EA01070C
:1005A000EDD152EA030012D082EA040083EA050189
:1005B000084305D0101BAB4106D20122002306E000
:1005C00000224FF0004302E06FF0010253101AEBDB
:1005D00006004CEB085110EB0A0041EB0B01BDE8A3
:1005E000F04D00F055B8C1F30A52C1F3130140F2C7
:1005F000FF3341F480119A4202DA0020014670472D
:1006000040F233439A42A2F2334202DC5242FFF7F5
:1006100052BEFFF741BE000030B5041E71F1000468
:1006200004DB4FF00044404264EB0101141E73F1FF
:10063000000405DB1C464FF00043524263EB040309
:10064000994208BF904230BD064C074D06E0E06875
:1006500040F0010394E8070098471034AC42F6D309
:10066000FFF7A8FDB8430008D8430008202A06DB9E
:10067000CB17203A41FA02F043EAE07306E041FA70
:1006800002F3D040C2F1200291400843194670475E
:1006900010B5141E73F1000408DA401C41F100018A
:1006A00092185B411A4301D120F0010010BD2DE9E1
:1006B000F04D92469B4611B1B1FA81F202E0B0FAD8
:1006C00080F220329046FFF7E7FD04460F4640EAED
:1006D0000A0041EA0B0153465A46084313D011461B
:1006E00053EA010019D0C8F140025046FFF7E3FD7C
:1006F00005460E46504659464246FFF7CDFD084393
:1007000005D0012004E020463946BDE8F08D0020E8
:10071000054346EAE0762C4337430A986305E40A2A
:10072000A0EB08000022FD0A44EA47540A3002D533
:1007300000200146E9E7010510196941DDE9084596
:1007400000196941BDE8F04DA2E790F83510022983
:1007500003D08021416501207047052180F83510C4
:100760000068016821F0010101600020704700006D
:1007700070B5044600F0FAF80546601C02D0044843
:100780000078044400F0F2F8401BA042FAD370BD98
:100790002C0000202DE9F84FDFF890B100224FF037
:1007A00001084FF0030A4FF00F090BF1040E00BFD0
:1007B0000B6808FA02F42340A3426ED14D68022D63
:1007C00001D0122D0ED1D50800EB850CDCF820509D
:1007D0005607F70E09FA07F6B5430E69BE402E43D9
:1007E000CCF82060066855000F790AFA05FC07F07E
:1007F000030726EA0C06AF40374307604E68012E18
:1008000005D0022E03D0112E01D0122E0ED18768F2
:10081000CE6827EA0C07AE403E4386604668A64392
:100820000C79C4F30014944034434460C4688E6867
:1008300024EA0C04AE402643C6604C68E4006FD541
:100840003B4C256845F480452560246822F003056B
:1008500004F480440094374C2E19D6F808489507C4
:100860002F0F09FA07F5AC43334DA84201D10025FB
:100870002EE0324DA84201D1012529E0304DA84299
:1008800001D1022524E02F4DA84201D103251FE00C
:100890002D4DA84202D104251AE041E02B4DA8427B
:1008A00001D1052514E02A4DA84201D106250FE00B
:1008B000284DA84201D107250AE0274DA84201D1C1
:1008C000082505E0254DA84201D1092500E00A25AB
:1008D000BD402543C6F80858DBF800405D464E6829
:1008E0009C43F60300D51C432C60DEF8004075469F
:1008F0004E689C43B60300D51C432C600B4D083555
:100900002C684E689C43F60200D51C432C60074DB2
:100910000C352C684E689C43B60200D51C432C60F5
:10092000521C102AFFF444AFBDE8F88F003C014090
:100930004438024000300140000002400004024000
:1009400000080240000C0240001002400014024067
:1009500000180240001C0240002002400024024017
:100960000AB1816170470904FBE700000148806813
:10097000704700002C00002070B5040004D094F8EB
:100980003D00002510B106E0012070BD84F83C5008
:10099000204600F011FA242084F83D002068016808
:1009A00021F00101016000F093FB33492268B0FBA4
:1009B000F1F15160314A6368934206D94FF496735E
:1009C00059434FF47A73B1FBF3F12368491C196260
:1009D000616891420BD84900B0FBF1F2C2F30B02FF
:1009E000042A01D2042019E0B0FBF1F016E0A3685C
:1009F0009BB301EBC10202EB0112B0FBF2F242F435
:100A00008042120530D04BB301EBC10202EB011161
:100A1000B0FBF1F040F4804040F400402168C86130
:100A2000D4E90701084321680860D4E903100843AA
:100A300021688860D4E9050108432168C8602068FE
:100A4000016841F0010101602564202084F83D0027
:100A5000256384F83E50002070BD00E006E001EB05
:100A60004102B0FBF2F2CCE70120D7E701EB4101F4
:100A7000B0FBF1F0D0E7000040420F00A08601007B
:100A80002DE9FF4F83B09A46DDE91187934604466E
:100A9000DDF84090FFF76AFF054694F83D002028F6
:100AA00074D11923012272492046009501F061FB9F
:100AB0000028F5D194F83C00012867D0012084F883
:100AC0003C0020680168C90703D1016841F00101B9
:100AD00001602068016821F400610160222084F82F
:100AE0003D00402084F83E0000262664C4F824908F
:100AF000A4F82A805F48E062608D2085CDE900750A
:100B000053465A462046049901F043FA28B1206C16
:100B100084F83C60042843D076E0208DC8B10128D9
:100B200020D00228206823D0416980690090208D60
:100B300003286BD801282AD04F4902283B464FF0A2
:100B4000000200955BD08846204601F012FBE8BB0E
:100B500040E02068416981690091016841F40071B9
:100B6000016076E02068016821F480610160F0E7AF
:100B7000016821F4806101602068016841F400612E
:100B80000160206841698069009062E06EE02A4659
:100B90003946204601F062FB30B1206C202833D06A
:100BA000012007B0BDE8F08F206847E020680168A9
:100BB00041F40071016020680169606A421C626250
:100BC0000170208D401E2085608D00E01CE0401EDD
:100BD0006085E9E72068016821F480610160206890
:100BE0000169606A421C62620170208D401E20858E
:100BF000608D401E60853B460022414600952046A0
:100C000001F0B7FA0028D1D00320CAE72A463946B6
:100C1000204601F023FB0028BFD120680169606AEB
:100C2000421C62620170208D401E2085608D401E36
:100C3000608520684169C94349070AD40169606A2F
:100C4000421C62620170208D401E2085608D401E16
:100C50006085208D00287FF46AAF202084F83D0055
:100C600084F83E6084F83C6000209AE7022098E710
:100C7000020010000000FFFF040001002DE9FF4FFB
:100C800083B09A46DDE9118793460446DDF840902B
:100C9000FFF76CFE064694F83D0020287DD119230D
:100CA000012243492046009601F063FA00287CD1D6
:100CB00094F83C00012878D0012084F83C0020689A
:100CC0000168C90703D1016841F001010160206892
:100CD000016821F400610160212084F83D0040207A
:100CE00084F83E0000252564C4F82490A4F82A80E6
:100CF0003048E062608D2085CDE9007653465A4643
:100D00002046049901F0BEF980B3206C84F83C5071
:100D1000042848D008E032463946204601F0CFFA90
:100D200030B1206C042839D0032007B0BDE8F08F23
:100D3000606A411C6162216800780861208D401E54
:100D400080B22085618D491E618521684A69D24340
:100D500052070BD468B1606A421C62620078086175
:100D6000208D401E2085608D401E6085208D0028CE
:100D7000D1D132463946204601F0D4F90028D0D1ED
:100D800054F83D0B016841F400710160202004F823
:100D90001E09E57765770020C7E706E0206801684F
:100DA00041F4007101600120BFE70220BDE70000AF
:100DB000020010000000FFFFF0B50068104987B086
:100DC00088421AD1401512240125002604278DE8F7
:100DD000F10069460B48FFF7DDFC28028DE8F100C1
:100DE00069460948FFF7D6FC0848016841F400014C
:100DF0000160006800F40000059007B0F0BD00003D
:100E0000005C004000080240000002404038024000
:100E10000248816802781144816070472C000020EC
:100E20000B4810B5016841F400710160016841F49C
:100E300080610160016841F480710160032000F06D
:100E400097F8002000F006F800F024F8002010BD0C
:100E5000003C024070B50D4D04464FF47A7128787D
:100E6000B1FBF0F00A490968B1FBF0F000F01BFBA0
:100E700048B9102C07D200222146501E00F058F825
:100E800000206C6070BD012070BD00002C000020AF
:100E9000380000201F4808B5016841F48041016016
:100EA000006800F4804000901A48001F016841F07B
:100EB00080510160006800F080500090072000F031
:100EC00057F8002211466FF00B0000F031F80022B5
:100ED00011466FF00A0000F02BF8002211466FF067
:100EE000090000F025F800221146501F00F020F8FC
:100EF00000221146101F00F01BF800221146901E20
:100F000000F016F80022BDE808401146501E00F01F
:100F10000FB800004438024000F01F020121914048
:100F20004009800000F1E020C0F800117047000087
:100F3000F0B40E4B1B680C46C3F30223C3F1070544
:100F4000042D00D90425191D072901D2002300E032
:100F5000DB1E012606FA05F1491E214099409E40FC
:100F6000761E16403143F0BC01F070BC0CED00E081
:100F7000064900F0070208684FF6FF03184040EAF0
:100F80000220034A10430860704700000CED00E0A7
:100F90000000FA052DE9F0470E46050065D0DFF8A0
:100FA0001481D8F80000F7B200F00F00B04207D269
:100FB00088F80070D8F8000000F00F00B04254D15B
:100FC00028683D4C810712D5400703D5206840F4BE
:100FD000E05020602878000703D5206840F4604086
:100FE00020602068A96820F0F0000843206028787D
:100FF000C0072DD0304968680839012812D002286E
:1010000013D0032811D00968890700292DDA216837
:1010100021F0030101432160FFF7A8FC814641F262
:10102000883A0EE009688903EFE709688901ECE76F
:10103000FFF79CFCA0EB0901514502D90320BDE854
:10104000F0872068696800F00C00B0EB810FEFD1E9
:10105000D8F80010404601F00F01B14207D90770DF
:10106000006800F00F00B04201D00120E7E72878C7
:10107000400705D52068E96820F4E0500843206067
:101080002878000706D52068296920F4604040EAE6
:10109000C100206000F03CF82168084AC1F3031148
:1010A000515CC840064908600020FFF7D3FE0020CD
:1010B000C5E70000003C024008380240843F0008B9
:1010C0003800002001480068704700003800002008
:1010D0000448054900680968044AC1F38221515C4B
:1010E000C84070473800002008380240943F00088C
:1010F0000448054900680968044AC1F34231515C5B
:10110000C84070473800002008380240943F00086B
:10111000154810B5006810F00C02144813D04110A7
:10112000042A0FD0082A0ED10F4C241F22682368EE
:1011300002F03F025B0207D52068C0F38810A0FBD5
:10114000010106E0084610BD2168C1F38811A1FB2A
:1011500000010023FFF746F82168C1F30141491C53
:101160004900B0FBF1F010BD083802400024F40043
:101170002DE9F84F050076D02878DFF8F8B2BE4C9C
:10118000C00749D0DBF800105846C1F3810101299E
:1011900008D00068C0F3810002280AD1201D006831
:1011A000400206D52068800336D568680028E2D062
:1011B00032E06868B0F5803F10D0B0F5A02F20680D
:1011C00010D020F480302060206820F4802020603F
:1011D0006868A0B1FFF7CAFB06460CE0206840F43F
:1011E0008030F4E740F480202060F7E7FFF7BEFB93
:1011F000801B642873D820688003F7D50CE0FFF7C4
:10120000B5FB064605E000BFFFF7B0FB801B642876
:10121000F0D820688003F7D42878DFF86082800750
:101220004FF000093ED5DBF80010584611F00C0FC6
:1012300009D00068C0F3810002280BD18D48001F3F
:101240000068400206D42068800715D5E8680128A8
:1012500009D111E0E868B8B10120C8F80000FFF733
:1012600085FB064605E002E1FFF780FB801B0228B4
:10127000C0D820688007F7D52068296920F0F800D9
:1012800040EAC10020600DE0C8F80090FFF76EFB57
:10129000064604E0FFF76AFB801B02281FD820687F
:1012A0008007F7D42878000722D5724E7448696900
:1012B0006C3671B101210160FFF758FB074604E06D
:1012C000FFF754FBC01B022809D830688007F7D508
:1012D0000EE0C0F80090FFF749FB074605E083E009
:1012E000FFF744FBC01B02287ED830688007F7D484
:1012F0002878400768D5DFF87CA100270AF1380A72
:10130000DAF80000C0000BD4DAF8001041F0805188
:10131000CAF80010DAF80000012700F080500090B1
:10132000584E3068C00510D4306840F4807030608A
:10133000FFF71CFB009005E0FFF718FB0099401A2F
:10134000022851D83068C005F6D54A4EA8686836DC
:1013500001280FD00528306810D020F0010030603F
:10136000306820F004003060A868B8B1FFF7FEFADA
:1013700000900FE0306840F00100F4E740F0040016
:101380003060F7E7FFF7F2FA0099411A41F288302E
:10139000814264D830688007F4D50EE0FFF7E6FAA2
:1013A000009007E0FFF7E2FA0099411A41F2883015
:1013B000814254D830688007F4D42FB1DAF8001095
:1013C00021F08051CAF80010A869C0B3DBF8001002
:1013D000C1F3810102294AD00228484607D0C8F843
:1013E0006000FFF7C3FA00E039E005463AE04746FF
:1013F000C8F86000FFF7BAFA064604E0FFF7B6FA4D
:10140000801B02282BD820688001F7D4D5E907017A
:101410000843A96A1C4A490802EB01416A6A41EA89
:101420008211084395F82C1040EA01611148001F11
:10143000016001203866FFF799FA054605E014E0DF
:10144000FFF794FA401B022809D820688001F7D5DD
:101450000BE000BFFFF78AFA401B022802D90320E5
:10146000BDE8F88F20688001F4D40020F8E701205F
:10147000F6E700000838024000380240000047420A
:10148000800E4742007000400000FFFF4FF0E02157
:101490000428086903D020F004000861704740F078
:1014A0000400FAE7704710B5401EB0F1807F01D309
:1014B000012010BD4FF0E02460610F21601701F0A2
:1014C000C5F90020A06107202061002010BD10B5E3
:1014D000FFF7E8FF10BD7047704730B590F838202F
:1014E000012A20D0012280F83820022380F83930E8
:1014F00003685C6824F070045C6003685C680D68D5
:101500002C435C6003689C6824F080049C60036842
:101510009C6849680C439C6080F83920002180F861
:101520003810084630BD022030BD10B5040003D08D
:1015300094F8390010B107E0012010BD002084F8B4
:101540003800204600F00CF8022084F83900211DF4
:10155000206801F023FA012084F83900002010BD32
:1015600008B501681648B1F1804F0BD0154A914279
:1015700010D1016841F002010160006800F0020032
:10158000009008BD016841F001010160006800F0B1
:101590000100F5E70C4A9142F3D1016841F01001D6
:1015A00001600068002200F0100000901146362013
:1015B000FFF7BEFCBDE808403620FFF7ADBC0000D9
:1015C0004038024000040040001000400168CA6832
:1015D00042F00102CA600068016841F00101016047
:1015E000002070470168CA6822F00102CA600068E2
:1015F000016A41F21112114207D1016A921011429F
:1016000003D1016821F0010101600020704770479B
:1016100070B50446006801694FF00005C9438907A9
:1016200015D4C168C943890711D4E91E016101209D
:101630002076206880698007204602D0FFF7E7FF08
:1016400004E000F0C1F8204600F043F92576206858
:101650000169C943490717D4C168C943490713D46D
:101660006FF004010161022020762068806910F487
:10167000407F204602D0FFF7CAFF04E000F0A4F844
:10168000204600F026F9257620680169C94309073C
:1016900016D4C168C943090712D46FF0080101616B
:1016A000042020762068C0698007204602D0FFF71A
:1016B000AEFF04E000F088F8204600F00AF9257635
:1016C00020680169C943C90617D4C168C943C9065E
:1016D00013D46FF010010161082020762068C069E2
:1016E00010F4407F204602D0FFF791FF04E000F0A5
:1016F0006BF8204600F0EDF8257620680169C943B3
:10170000C90708D1C168C943C90704D1891E01614D
:10171000204600F00DF920680169C943090609D483
:10172000C168C943090605D46FF0800101612046F4
:10173000FFF7D1FE20680169C943490609D4C16891
:10174000C943490605D46FF040010161204600F00D
:10175000ACF920680169C94389060BD4C168C94343
:10176000890607D46FF0200101612046BDE8704072
:10177000FFF7B2BE70BD000000B502680021022074
:1017800085B0B2F1804F0FD00C4B9A420AD1102293
:101790000092CDE90101CDE903100948694600BF77
:1017A000FEF7F8FF05B000BD20220092CDE901014F
:1017B0000120CDE9031069460248F1E7000400402A
:1017C0000004024000000240704770B5044690F8E3
:1017D00038000D4601280DD0012684F8386002201B
:1017E00084F8390042B1042A18D0082A2AD00C2AD9
:1017F0004DD139E0022070BD206801F045F9206824
:10180000816941F0080181612068816921F004014A
:101810008161206881692A69114311E0206801F023
:101820005FF92068816941F4006181612068816904
:1018300021F480618161206881692A6941EA02217D
:10184000816124E0206801F07DF92068C16941F0E0
:101850000801C1612068C16921F00401C1612068EB
:10186000C1692A69114311E0206801F09BF92068E1
:10187000C16941F40061C1612068C16921F48061DE
:10188000C1612068C1692A6941EA0221C16184F805
:101890003960002084F8380070BD10B5040003D012
:1018A00094F8390010B107E0012010BD002084F841
:1018B0003800204600F00CF8022084F83900211D81
:1018C000206801F06BF8012084F83900002010BD79
:1018D0007047704710B504460068002201F0BEF85A
:1018E000114841F2111221689310814202D00F4831
:1018F000814209D1086A104206D1086A184203D110
:10190000486C20F4004048642068016A114206D106
:10191000016A194203D1016821F00101016001202F
:1019200084F83900002010BD00000140000401408F
:101930007CB5064600683A49884255D139483A4D47
:10194000007805F11004092865D2DFE800F0050CE5
:10195000262E3B4152575F0002F0B2F9334934481A
:1019600001F006FC3BE002F0ABF932480068FEF7FC
:101970006AFC41EC100B3048697853EC102B90ED69
:10198000001ABCEEC11A11EE100AC0B2CDE9001067
:101990002A49274801F0ECFB21E002F091F9A06808
:1019A0002749303000900CCC06E002F089F9A0689D
:1019B0002449303000900CCC1D483032303301F0D7
:1019C000D7FB0CE002F07CF91F482049027803E0C5
:1019D00002F076F9EA881E49154801F0C9FB962203
:1019E00013491C4800F0A1FA3046BDE87C40FFF7DF
:1019F000EDBD02F065F92A781749EDE702F060F9CC
:101A0000A0681649303000900CCCD5E702F058F9A8
:101A10006A891349E0E702F053F912499FE7000091
:101A2000001000400000002010000020904000083E
:101A3000C00100200C00002008000020084300081E
:101A400000420008A841000804000020604300088C
:101A5000B0420008800100205041000858420008B0
:101A6000E84000083040000870B5044690F838009F
:101A7000012818D0012584F83850022084F8390054
:101A8000204601F0B7F82068C16821F04001C1602C
:101A90002068C16821F48041C16084F83950002079
:101AA00084F8380070BD022070BD70477047000098
:101AB00070B5026804461068D168536910F00F0FC2
:101AC00050D003F0010501F4907635435DD0C20794
:101AD00005D0CA0503D5E26B42F00102E26342077A
:101AE00005D5DA0703D0E26B42F00202E263820717
:101AF00005D5DA0703D0E26B42F00402E263020785
:101B000005D5DA0703D0E26B42F00802E263E26B2C
:101B1000002A33D0800604D5880602D5204601F07D
:101B2000E7F820684069E16BC0F38010090700D432
:101B300028B3204601F0CEF82068416949061AD53D
:101B4000416921F040014161606BA0B11B49016511
:101B5000606BFEF7FAFD002810D0606B016DBDE8E8
:101B600070400847830610D58B060ED52046BDE889
:101B7000704001F0BDB82046FFF798FF70BD2046C9
:101B8000FFF794FF0020E06370BD030606D50B0647
:101B900004D52046BDE8704001F046BA4006F3D5B2
:101BA0004806F1D5D168204621F04001D1602021BE
:101BB00084F8391000F0D8F970BD0000C52C000879
:101BC00070B5040004D094F83900002510B106E087
:101BD000012070BD84F83850204600F023F82420FE
:101BE00084F839002068C16821F40051C1602046A2
:101BF00001F0C4F82068016921F490410161206876
:101C0000416921F02A0141612068C16841F4005115
:101C1000C160E563202084F8390084F83A00002090
:101C200070BD0000F0B50068144987B0884223D128
:101C30001348016841F4801101600068022400F437
:101C4000801005904FF480500125032608278DE869
:101C5000F10069460B48FEF79DFD04208DE8F10078
:101C600069460948FEF796FD002211463520FFF728
:101C70005FF93520FFF750F907B0F0BD0050004084
:101C80004038024000080240000C024090F83A3010
:101C9000202B1DD1D1B1CAB190F83830012B17D00B
:101CA00081628285C2850021C163222280F83A20A8
:101CB00080F8381001684A6942F001024A61006800
:101CC000C16841F49071C1600020704701207047E5
:101CD000022070472DE9F84F00686049884274D1AE
:101CE0006148DFF880E100240378AEF110005C4920
:101CF0008278A3F130061546521C02F0FF0A00F16B
:101D00000C0291F800C017784FF0010906F0FF0BA4
:101D10004FF0640817FB08F85778BCF1090F07EB80
:101D2000870708EB4708977847440097BFB21ED251
:101D3000DFE80CF005141F3A1D4E57618600312B69
:101D400053D0322B04D0332B04D0342B04D00EE0EC
:101D5000022011E003200FE007200DE0302B06D019
:101D6000322BF5D0332BF5D0342BF5D005E00C70A9
:101D700003E00A2E08D304200870BDE8F84F0122C2
:101D800039493A48FFF782BF65B1012D0AD0022DCB
:101D9000F3D14FF49673C7809F4200D9C3808470FB
:101DA000052037E0022343E00A2EE4D275B1012D6D
:101DB0000CD0022DE1D1009BDBB20370642B01D962
:101DC000642303708470062024E044E003232FE0A2
:101DD000792B03D06E2BCED1848006E0C28882801E
:101DE00003E0792B04D06E2BC5D181F80090C4E7B5
:101DF00002784270F9E70A2EBDD2C5B1012D16D086
:101E0000022DBAD14FF4FA7347819F4200D9438122
:101E10008470082008701470547094706FF02F0054
:101E2000CEF80000CEF80400CEF80800A5E707239E
:101E30000B7002F805B04EF8256080F802A09CE710
:101E4000792B03D06E2B96D10481CEE74289028193
:101E500080F803907CE7BDE8F88F00000050004058
:101E6000000000202000002004000020800100204D
:101E70002DE9F843044690F839001F4616460D46F2
:101E8000202850D1A5B19EB194F8380001284AD03D
:101E9000012084F838004FF00008C4F83C8021206D
:101EA00084F83900FEF762FDA6848146E68426E0C8
:101EB0000120BDE8F883E08C401EE084A0684B461A
:101EC000B0F5805F4FF000024FF080012046009790
:101ED00003D001F0DAF8E8B90DE001F0D6F8C8B99E
:101EE00028882168C0F308004860206908B16D1C8B
:101EF00005E0AD1C03E0216815F8010B4860E08C9B
:101F00000028D8D14B46002240212046009701F0FE
:101F1000BCF808B10320CCE7202084F8390084F80D
:101F200038800020C5E70220C3E790F83930202B25
:101F300018D1A9B1A2B190F83830012B12D00162AA
:101F40008284C2840021C163212280F8392080F874
:101F500038100068C16841F08001C16000207047FE
:101F60000120704702207047704701684A69D243D8
:101F700052050CD46FF480624A610421016400218F
:101F800040F8301F20224273017301207047002067
:101F900070472DE9F84F0446006889460B9D01689B
:101FA0009846174641F4806101602068016841F459
:101FB0008071016000954FF0011A002251462046C1
:101FC0000A9B00F0D6F8F0BB216809F0FE0008611A
:101FD0000AF1010B2B46594620460A9A00F0FAF8FE
:101FE00018B1206C042812D03AE020684169806959
:101FF00000902A4620460A9900F061F950B1206C01
:1020000004282DD12068016841F40071016001208D
:10201000BDE8F88FFEB2B8F1010F09D02168380A87
:1020200008612A4620460A9900F049F90028E6D1BD
:10203000206806612A4620460A9900F040F90028E7
:10204000DDD1206800E00BE0016841F4807101609F
:1020500000950022514620460A9B00F08AF808B1FC
:102060000320D5E7216809F0FF0040F00100086176
:102070002B46594620460A9A00F0ACF80028B0D109
:10208000C6E700002DE9F843044600680D46DDE987
:10209000089701689846164641F4807101604B46E6
:1020A00000224FF001112046009700F062F8E8B9D5
:1020B000216805F0FE0008613B464A461849204663
:1020C00000F088F828B1206C04280FD10120BDE869
:1020D000F88320684169806900903A464946204665
:1020E00000F0EDF820B1206C042813D00320EEE7B7
:1020F000F5B2B8F1010F09D02168300A08613A46FB
:102100004946204600F0DBF80028ECD12068056144
:102110000020DCE72068016841F400710160D5E728
:102120000200010070B516460D4604461AE020462E
:10213000FFF71BFF08B1012070BD681C12D025B14C
:10214000FEF714FC801BA8420CD954F8400F40F055
:10215000200044F8100900202060202161732073C2
:10216000032070BD20684069C0434007DFD40020D1
:1021700070BD2DE9F0471E4690460D460446C1F35A
:102180000747DDF8209012E0701C10D02EB1FEF74A
:10219000EDFBA0EB0900B04209D9002044F8300F54
:1021A00020216173A07320730320BDE8F0872068AD
:1021B000012F0AD0806925EA00000004000C06D037
:1021C00000214145E0D00020EFE74069F3E701211D
:1021D000F7E700002DE9F0479A4691460D46044680
:1021E00000264FF02008C1F307472AE02068406925
:1021F000C043400512D42068016841F400710160B9
:1022000021686FF48060486104202064266384F8AC
:102210003D8084F83C600120BDE8F087B9F1FF3FC4
:102220000FD0B9F1000F05D0FEF7A0FBA0EB0A011B
:10223000494506D944F8306F84F80D802673032091
:10224000EAE72068012F07D0D0F8180025EA00003F
:102250000004000CE0D0C9E74069F7E72DE9F04140
:10226000002590460E460446202721E04069C043E1
:10227000C0060CD421686FF0100048612564256306
:1022800084F83D7084F83C500120BDE8F0812EB107
:10229000FEF76CFBA0EB0800B04209D954F8400FE0
:1022A00040F0200044F80409677025700320ECE733
:1022B00020684169C9434906D8D40020E5E770B5D4
:1022C00016460D4604461AE02046FFF74EFE08B1BA
:1022D000012070BD681C12D025B1FEF747FB801BA2
:1022E000A8420CD954F8400F40F0200044F81009DF
:1022F00000202060202161732073032070BD2068BE
:102300004069C0430006DFD4002070BD2DE9F04FC6
:10231000B74887B000240068B54940F00400086061
:10232000086800F004000590086840F0200008608C
:10233000086800F020000590086840F08000086000
:10234000086800F0800005900846006840F0010031
:102350000860086800F001000590086840F002007D
:102360000860086800F002000590086840F040002E
:102370000860086800F0400005900846006840F0DA
:1023800010000860086800F010000590086840F030
:10239000080008600868002200F008000590162177
:1023A0009448FEF7DDFA002280219348FEF7D8FA20
:1023B0004FF4405B002259469048FEF7D1FA0022C4
:1023C0004FF4C0418E48FEF7CBFA4FF63F0002258E
:1023D000CDE9000502AA03260C27DFF8289282E83F
:1023E000D00069464846FEF7D5F94FF4607000907A
:1023F000CDE901540520CDE9034069464846FEF782
:10240000C9F968020090CDE901544FF00E08CDE9FA
:10241000034869464846FEF7BDF902AA4FF0010994
:1024200082E8D000CDE9009569467248FEF7B2F91E
:1024300016200090CDE9019469466E480394FEF79A
:10244000A9F9DFF8C4A148F20700CDE9000A6946FE
:1024500002946948FEF79EF941F658000090CDE9D4
:102460000154CDE9034869466348FEF793F980209B
:102470000090CDE9019469465F480394FEF78AF91C
:102480002020CDE9000A694602945A48FEF782F9F5
:102490000096CDE901544FF0090ACDE9034A694697
:1024A0005A48FEF777F90420CDE9000469465748F9
:1024B0000294FEF76FF948F23310CDE9000502AA45
:1024C000694682E8D0004E48FEF764F94FF6837003
:1024D000CDE9000502AA694682E8D0004C48FEF723
:1024E00059F94FF470600090CDE90154CDE90348EB
:1024F00069464648FEF74EF94FF450400090CDE94A
:102500000154CDE9034769464048FEF743F92803E3
:10251000CDE9000469463D480294FEF73BF94CF2D0
:102520000370CDE9000502AA694682E8D00033486D
:10253000FEF730F9A802CDE9000469462F4802945D
:10254000FEF728F9CDF800B0CDE9019469462B4893
:102550000394FEF71FF94FF40C600090CDE901548D
:10256000CDE9034869462648FEF714F94FF4986010
:102570000090CDE90154CDE9034869461D48FEF7B6
:1025800009F97002CDE9000502940720CDE9036046
:1025900069461948FEF7FEF848200090CDE901543D
:1025A000CDE9034869461548FEF7F4F84FF4A0500A
:1025B0000090CDE90154CDE9034A69461048FEF781
:1025C000E9F870030090CDE9019469460C48039442
:1025D000FEF7E0F86020CDE9000502AA694682E82E
:1025E000D0000A48FEF7D6F807B0BDE8F08F00002B
:1025F000303802400008024000000240000C024057
:1026000000180240001402400000121000040240B2
:10261000001002400E4810B50C4901600D494160A0
:1026200000214FF480428160C0E903124161816161
:10263000C1610162FEF7A0F9002805D0BDE8104095
:10264000422105A000F054BD10BD0000005C004018
:1026500078000020A08601002E2E2F5372632F6970
:1026600032632E630000000010B522488EB04FF098
:1026700080410024C0E900148460C4600461FEF756
:1026800054FF18B141211CA000F032FD1948FFF79A
:1026900004F918B1462118A000F02AFD0720CDE961
:1026A000070407A91348FFF7DFF918B14D2112A05D
:1026B00000F01EFD0C940CA90E480D94FEF70DFFC2
:1026C00018B154210CA000F013FD6020CDE90004E6
:1026D00002940022694607480494FFF776F818B17F
:1026E0005D2105A000F004FD0248FFF745F80EB09B
:1026F00010BD0000CC0000202E2E2F5372632F74CB
:10270000696D2E630000000010B522488EB020498C
:102710000024C0E900148460C4600461FEF705FF72
:1027200018B171211CA000F0E3FC1A48FFF7B5F8BE
:1027300018B1762118A000F0DBFC0720CDE90704D2
:1027400007A91448FFF790F918B17D2112A000F0F5
:10275000CFFC0C940CA90F480D94FEF7BEFE18B1E7
:1027600084210DA000F0C4FC6020CDE90004029497
:102770000022694607480494FFF727F818B18D2115
:1027800005A000F0B5FC0348FEF7F6FF0EB010BD43
:1027900000040040080100202E2E2F5372632F7476
:1027A000696D2E63000000001CB510480E4900241E
:1027B000016043F2D401C0E901143221C160FEF787
:1027C000B4FE18B19E210AA000F092FC0094694664
:1027D00006480194FEF781FE002803D0A52104A03D
:1027E00000F086FC1CBD00000010004044010020E9
:1027F0002E2E2F5372632F74696D2E63000000001C
:102800000D4810B50B4901604FF41651416000218D
:1028100081600C22C160C0E904128161C161FFF7CF
:10282000CFF9002805D0BDE81040412103A000F0F9
:102830005FBC10BD00500040800100202E2E2F53A1
:1028400072632F75736172742E6300000907090E9D
:10285000002806DA00F00F0000F1E02080F8141DD7
:10286000704700F1E02080F80014704710B5FEF7C3
:10287000CFFABDE81040FEF72ABE000030B5294867
:1028800093B00024016841F080510160006800F0BD
:10289000805011902448016821F4404141F4804166
:1028A00001600068022500F440401190012003906F
:1028B00010200490009506950820CDE907403220AD
:1028C000099004200A9007200B906846FEF750FC00
:1028D00008B1F62110E00F20CDE90C054FF4C050EF
:1028E000CDE90E404FF4A050109000210CA8FEF747
:1028F00051FB20B14FF482710CA000F0F9FBFEF700
:10290000E1FB4FF47A71B0FBF1F0FEF7CCFD04204F
:10291000FEF7BCFD00221146501EFEF709FB13B066
:1029200030BD000040380240007000402E2E2F5372
:1029300072632F6D61696E2E63000000104801689C
:1029400041F4700101600F48016841F0010101602C
:102950000C4A00210832116002680B4B1A400260D9
:10296000031D0A4A1A60026822F4802202600548A8
:102970000C30016002495806803908607047000039
:1029800088ED00E000380240FFFFF6FE1030002422
:102990000148FEF73DBE000044010020F0B502688A
:1029A000234B244D244E254F254C4FF0804C98420C
:1029B00009D0604507D0A84205D0B04203D0B84244
:1029C00001D0A04204D122F0700E4A6842EA0E0201
:1029D00098421BD0604519D0A84217D0B04215D0FC
:1029E000B84213D0A04211D0164DA8420ED0164DB9
:1029F000A8420BD0154DA84208D0154DA84205D0CD
:102A0000144DA84202D0144DA84203D122F44075BF
:102A1000CA682A4302608A68C2620A68826298426F
:102A200001D0A04201D10969016301214161F0BDDA
:102A3000000001400004004000080040000C00407D
:102A400000040140004001400044014000480140B2
:102A500000180040001C00400020004010B5012379
:102A6000046A8B409C430462036A8A4013430362F6
:102A700010BD10B5846842EA032224F47F440A435F
:102A80002243826010BD000030B5026A22F00102CC
:102A90000262026A436884690D6824F07304254366
:102AA00022F002048A6822430B4CA04202D00B4C55
:102AB000A0420BD122F00804CA6823F440732243D9
:102AC0004C6922F004021C438B69234343608561F7
:102AD00049684163026230BD0000014000040140CA
:102AE00030B5026A22F010020262026A4368846909
:102AF0000D6824F4E64444EA05248D6822F020029F
:102B000042EA05120D4DA84202D00D4DA8420ED149
:102B1000CD6822F0800242EA05124D6923F4406339
:102B200043EA85038D6922F0400243EA850343604E
:102B3000846149688163026230BD00000000014089
:102B40000004014030B5026A22F480720262036A16
:102B50004268C46923F4007324F073050C682C43A5
:102B60008D6843EA05230D4DA84202D00C4DA842C2
:102B70000ED1CD6823F4006343EA05234D6922F4A6
:102B8000405242EA05128D6923F4806342EA05123D
:102B90004260C4614968C163036230BD0000014006
:102BA0000004014030B5026A22F480520262046AD5
:102BB0004268C3690D6823F4E64343EA05238D6840
:102BC00024F4005444EA0534084DA84202D0084DCC
:102BD000A84204D14D6922F4804242EA8512426043
:102BE000C36149680164046230BD00000000014017
:102BF0000004014030B403689A6822F070044A6807
:102C0000224322F007040A6822439A604A6812F0BD
:102C10000F0F1FD11211082A1CD2DFE802F01B1B74
:102C20001B1B0B1D23040B69D1E90221006830BC7A
:102C3000FFF71FBF0268136A146A24F001041462CC
:102C400002689469096924F0F00444EA0111916171
:102C50000068036230BC70470A698968006830BC4C
:102C600000F006B80A698968006830BC00F011B845
:102C700010B5036A046A24F001040462846924F034
:102C8000F00444EA021423F00A020A438461026257
:102C900010BD10B5036A23F0100303628369046A50
:102CA00023F4704343EA023224F0A00343EA011103
:102CB0008261016210BD00000148FEF7F9BE00000C
:102CC0008001002010B5806B0021C185C184FEF712
:102CD000EDFE10BD0168CA6822F49072CA600168F6
:102CE0004A6922F001024A61202180F83A107047B7
:102CF00010B590F83A10222901D0022010BD816849
:102D0000B1F5805F11D00169002901681FD04968C1
:102D100001F07F03816A4A1C82620B70C18D491EDB
:102D20000904090CC18518D026E00269816A002ACD
:102D30000268526805D0D2B20A80816A491C816259
:102D4000ECE7C2F308020A80816A891CF7E74A6847
:102D5000816A4B1C83620A70E0E70168CA6822F44A
:102D60009072CA6001684A6922F001024A6120211A
:102D700080F83A10FEF7AEFF002010BD2DE9F041BB
:102D800004460068016921F44052E1681143016181
:102D90002168C86849F20C6290432369A268E5691A
:102DA0001A4363692B431A430243CA602168486986
:102DB00020F44072A06910434861E1696425B1F5CF
:102DC000004F9748974A21684FF032083FD0914210
:102DD00001D081427CD1FEF78BF900EBC00101EB01
:102DE000001061688900B0FBF1F6FEF781F900EB95
:102DF000C00101EB001061688900B0FBF1F0B0FB8D
:102E0000F5F06FF01801484306EB800108EB011064
:102E1000B0FBF5F000F0F006FEF76AF900EBC00138
:102E200001EB001061688900B0FBF1F0B0FBF5F038
:102E300006EB0016FEF75CF900EBC00101EB001099
:102E400061688900B0FBF1F7FEF752F9D2E09142D8
:102E500001D081423DD1FEF74BF900EBC00101EBFF
:102E6000001061684900B0FBF1F0B0FBF5F006011D
:102E7000FEF73EF900EBC00101EB0010616849006C
:102E8000B0FBF1F7FEF734F900EBC00101EB0010E5
:102E900061684900B0FBF1F0B0FBF5F06FF018018C
:102EA000484307EB800108EBC100B0FBF5F000F0F0
:102EB000F80006EB4006FEF71BF900EBC00101EB42
:102EC000001061684900B0FBF1F7FEF711F93CE032
:102ED00055E0FEF7FDF800EBC00101EB0010616862
:102EE0004900B0FBF1F0B0FBF5F00601FEF7F0F899
:102EF00000EBC00101EB001061684900B0FBF1F785
:102F0000FEF7E6F800EBC00101EB00106168490034
:102F1000B0FBF1F0B0FBF5F06FF01801484307EBA0
:102F2000800108EBC100B0FBF5F000F0F80006EB03
:102F30004006FEF7CDF800EBC00101EB0010616820
:102F40004900B0FBF1F7FEF7C3F800EBC00101EB5D
:102F5000001061684900B0FBF1F0B0FBF5F06FF0D4
:102F60001801484307EB800108EBC100B0FBF5F006
:102F700000F00700216830448860BDE8F081FEF76A
:102F8000A7F800EBC00101EB001061688900B0FBFD
:102F9000F1F6FEF79DF800EBC00101EB001061684F
:102FA0008900B0FBF1F0B0FBF5F06FF01801484379
:102FB00006EB800108EB0110B0FBF5F000F0F00625
:102FC000FEF786F800EBC00101EB00106168890094
:102FD000B0FBF1F0B0FBF5F006EB0016FEF778F869
:102FE00000EBC00101EB001061688900B0FBF1F754
:102FF000FEF76EF800EBC00101EB0010616889007C
:10300000B0FBF1F0B0FBF5F06FF01801484307EBAF
:10301000800108EB0110B0FBF5F000F00F00A9E70C
:10302000001401400010014090F83910212901D00E
:10303000022070478168B1F5805F016A0BD04A1C9D
:103040000262026809785160C18C491E0904090CAA
:10305000C1840ED017E009880268C1F308015160ED
:1030600001690029016A02D0491C0162ECE7891C50
:10307000FBE70168CA6822F08002CA600068C16884
:1030800041F04001C160002070472DE9F0419846B1
:1030900017460E460446069D1DE0681C1BD02DB148
:1030A000FDF764FCA0EB0800A84214D92068C168B1
:1030B00021F4D071C1602068416921F001014161B2
:1030C000202084F8390084F83A00002084F8380081
:1030D0000320BDE8F0812068006836EA000004D0D3
:1030E0000020B842D9D00020F3E70120F9E7000022
:1030F0008AB004460EA1684600F03AF84FF0FF355A
:103100002B46282269461648FEF7B2FE2B460422BB
:1031100021461348FEF7ACFE1248FEF763FA002181
:103120001148FEF7D7FB00211048FEF7D3FBFEE75E
:10313000416E206572726F72206F63636F75722CBF
:1031400020746865206170706C69636174696F6E6A
:1031500020697320616C7465642E0D0A0000000004
:103160008001002044010020CC0000200801002044
:103170000FB4084B10B504A902AA039800F0DEF8BA
:10318000044602A9002000F070FC204610BC5DF847
:1031900014FB00006B3A000802E008C8121F08C1C7
:1031A000002AFAD170477047002001E001C1121FC8
:1031B000002AFBD1704700002DE9FF5F82B000219B
:1031C000DDE90430020DDDF840B0034318D044F6C9
:1031D0001050A2F2FF3242431514119801281FD05B
:1031E000A5EB0B00401C5FEA000A4FF000064E4FB3
:1031F000DFF83891B046504615D5CAF1000413E007
:10320000119801244AA3012801D16FEA0B01029809
:10321000119AC0E90031C0E9024206B0BDE8F09F52
:10322000CBF10000DFE704460021404A491842EB99
:103230000450CDE9001012E0E00707D032463B46CB
:1032400040464946FDF7EEF88046894632463B4601
:1032500010461946FDF7E6F806460F466410002CA6
:10326000EAD1DDE90401DDE90023BAF1000F06DA55
:10327000FDF7D8F842464B46FDF7D4F805E0FDF7D8
:1032800043F942464B46FDF73FF904460E460022FD
:10329000284BFDF7C1F903D84FF0FF30014607E096
:1032A0000022254B20463146FDF715F8FDF79BF926
:1032B000102409E0002C0ADB0A220023FCF792FF0D
:1032C000039B30321A55641E50EA0102F2D1641C8D
:1032D000039AC4F111031444119A012A03D0012264
:1032E00008430DD10AE0084304D000204FF0110B31
:1032F000119072E7A3EB0B056D1E0DE05B4504DD3D
:103300004FF0000205F1010504E003DA4FF000027E
:10331000A5F10105002AECD002981199C0E902310B
:10332000C0E9004579E70000000014400000F03FCC
:10333000300000000000F0430000E03F2DE9FF4FA7
:1033400095B09B468946064600250FE2252877D191
:1033500000242746F84A0121059400E0044316F8AA
:10336000013F203B01FA03F01042F7D130782A28C0
:1033700011D06FF02F033078A0F13002092A16D84F
:10338000059A44F0020402EB820203EB420210446D
:10339000761C0590EFE759F8042B0592002A03DA12
:1033A000504244F40054059044F00204761C3078F6
:1033B0002E2816D116F8010F44F004042A280DD047
:1033C0006FF02F023078A0F13003092B09D807EBFA
:1033D000870302EB4303C718761CF3E759F8047B15
:1033E000761C30786C280FD006DC4C2817D0682863
:1033F0000DD06A2814D104E0742810D07A280FD197
:103400000DE044F400140AE044F4801401E044F4B4
:1034100040147278824202D104F58014761C761C26
:10342000307866280BD013DC582877D009DC0028C8
:1034300075D04528F6D04628F4D047281AD19DE10A
:1034400018E0632835D0642879D0652812D195E139
:10345000702873D008DC6728F1D069286FD06E28F7
:103460000DD06F2806D1B5E073282CD0752875D003
:10347000782874D05A46179990476D1C75E1C4F3AB
:103480000250022809D003280DD0D9F800100428D2
:103490000DD00D6009F1040967E1D9F80010EA17B1
:1034A000C1E90052F6E7D9F800100D80F2E70D707F
:1034B000F0E719F8041B8DF8001000208DF80100CA
:1034C000EA46012003E059F804AB4FF0FF306107F2
:1034D0004FF0000102D40DE008F101018846B94225
:1034E0000FDA8045F8DB1AF808100029F4D108E05B
:1034F00008F1010188468142FADB1AF80810002918
:10350000F6D105985B46A0EB080721463846179A86
:1035100000F094FA284400EB080507E04DE029E1AB
:103520000DE01AF8010B5A4617999047B8F10108B7
:10353000F7D25B4621463846179A13E142E00A2249
:103540000092C4F302524FF0000A022A08D059F840
:1035500004CB032A4FEAEC710AD00DE029E02AE0FF
:1035600009F1070121F00702F2E802C1914609E0E2
:103570000FFA8CFC4FEAEC71042A03D14FFA8CFC51
:103580004FEAEC71002907DA0A460021DCF1000C51
:1035900061EB02012D2202E0220504D52B228DF8D9
:1035A0000420012203E0E20701D02022F7E7904641
:1035B00059E00A2102E010220DE010214FF0000A2C
:1035C00000910BE010224FF0000A44F00404082799
:1035D000009203E008224FF0000A0092C4F3025266
:1035E000022A05D059F804CB0021032A08D009E0AB
:1035F00009F1070121F00702F2E802C1914605E056
:103600001FFA8CFC042A01D10CF0FF0C4FF00008CB
:10361000220728D5702806D0009B83F0100353EAB8
:103620000A0305D00EE040228DF80420012208E0B4
:103630005CEA010206D030228DF804208DF80500E6
:1036400002229046009B83F0080353EA0A030AD142
:103650005CEA010201D1620705D530228DF8042011
:103660004FF001087F1E582804D034A003900EA804
:1036700002900DE036A0F9E753466046009AFCF749
:10368000B1FD84460398825C0298401E029002704D
:103690005CEA0100F0D1029806A9081A00F1200A9C
:1036A000600702D524F4803400E00127574502DD8D
:1036B000A7EB0A0000E0002000EB0A01009005984B
:1036C0004144401A0590E00306D45B462146179A10
:1036D000059800F0B3F90544002706E001A85A4612
:1036E000C05D179990476D1C7F1C4745F6DBE003D2
:1036F0000CD55B462146179A059800F09FF90544C2
:1037000004E030205A46179990476D1C0099481ED6
:1037100000900029F5DC08E0029802995A460078EA
:10372000491C0291179990476D1CBAF10001AAF14A
:10373000010AF1DC65E10000092801003031323373
:1037400034353637383961626364656600000000DD
:1037500030313233343536373839414243444546C7
:103760000000000000F058F90544761C307800286D
:103770007FF4ECAD19B02846BDE8F08F620700D4A5
:10378000062709F1070222F0070CFCE80223E146B4
:1037900003F000485FEA080C02D00FF2702C0DE035
:1037A0005FEA045C02D50FF2682C07E05FEAC47C94
:1037B00002D00FF2602C01E0AFF2700C4FF0FF3836
:1037C00023F00043CDF850C065280CD006DC452816
:1037D00009D046281DD047283DD13DE0662818D0A5
:1037E00067287ED138E00021112F01DB112000E095
:1037F000781CCDE9000106A90EA8FFF7DDFCDDE984
:103800000F010E9A03910021009207F1010A049121
:103810004DE04FF000400097CDE9011006A90EA839
:10382000FFF7CAFCDDE90F0203920E9B11990022FB
:10383000DDF80CA00093049211B9791C00EB010A89
:10384000B7EB0A0004D4C0F1FF3007F1010A04907D
:10385000AAEB0700019044E0012F00DA01270021C4
:10386000112F01DD112000E03846CDE9000106A945
:103870000EA8FFF7A1FCDDE90F010E9A03910021CC
:1038800004910092BA4621070CD40399514500DAFD
:103890008A46BAF1010F05DD009AAAF10101515CD7
:1038A000302908D0B84202DA10F1040F06DA0121FB
:1038B000CDE9011015E0AAF10101E9E7002805DCD6
:1038C000049901440491AAEB000102E0411C514516
:1038D00000DD8A460499401A401C01904FF00040D8
:1038E0000290200704D40198504501DBCDF80480F4
:1038F00000208DF84F0002980DF14F07B0F1004FF6
:1039000025D02B200E9002984FF0020800280CDAE8
:10391000404202902D200E9007E00A210298FCF709
:10392000A5FC3031029007F8011DB8F10001A8F1A3
:103930000108F2DC02980028EFD1791E0E98087079
:10394000307800F0200040F0450007F8020D12A882
:10395000C01B00F107081498007800B1012000EBAB
:103960000A01019801EBE07105984144401A401E9C
:103970000590E00306D45B462146179A059800F0AF
:103980005DF805441498007818B15A461799904785
:103990006D1CE00324D55B462146179A059800F07C
:1039A0004DF805441CE00498002807DBDDE903011D
:1039B000884203DD0098405C179901E01799302098
:1039C0005A469047049805F10105401C049001985F
:1039D000401E019004D12E205A46179990476D1C25
:1039E000BAF10001AAF1010ADDDC05E017F8010BCC
:1039F0005A46179990476D1CB8F10001A8F10108CB
:103A0000F4DC5B462146179A0598ABE62D000000D2
:103A10002B000000200000002DE9F04104460025A5
:103A20001E461746880404D405E039462020B047D6
:103A30006D1C641EF9D52846BDE8F0812DE9F041E2
:103A4000044600251E469046C80301D5302700E0F5
:103A50002027880404D505E041463846B0476D1C50
:103A6000641EF9D52846BDE8F0810A68531C0B6036
:103A700010707047D0ED060A90ED070A002930EE6D
:103A8000801A90ED080A31EE001A80ED001AB0EEAF
:103A9000001A50EE410AC0ED010A80ED020A03D07F
:103AA0000021C16001614161704700002DE9FF41C3
:103AB00001250DF10C08CDE90085064632242B4680
:103AC000AA22002102947D48FCF7DAFF0DF10D07D0
:103AD0000097CDE901540123AB2200217748FCF780
:103AE000CFFFBDF80C00012340BA3080CDF8008034
:103AF000CDE90154AC2200217048FCF7C1FF0097CA
:103B0000CDE901540123AD2200216C48FCF7B8FF38
:103B1000BDF80C00012340BA7080CDF80080CDE9DB
:103B20000154AE2200216548FCF7AAFF0097CDE9B9
:103B300001540123AF2200216048FCF7A1FFBDF82A
:103B40000C00012340BAB080CDF80080CDE90154CB
:103B5000B02200215948FCF793FF0097CDE90154AA
:103B60000123B12200215548FCF78AFFBDF80C0063
:103B7000012340BAF080CDF80080CDE90154B22293
:103B800000214E48FCF77CFF0097CDE9015401234A
:103B9000B32200214948FCF773FFBDF80C00012354
:103BA00040BA3081CDF80080CDE90154B422002123
:103BB0004248FCF765FF0097CDE901540123B52287
:103BC00000213E48FCF75CFFBDF80C00012340BA21
:103BD0007081CDF80080CDE90154B622002137482C
:103BE000FCF74EFF0097CDE901540123B7220021D5
:103BF0003248FCF745FFBDF80C00012340BAB08104
:103C0000CDF80080CDE90154B82200212B48FCF703
:103C100037FF0097CDE901540123B922002127483D
:103C2000FCF72EFFBDF80C00012340BAF081CDF85F
:103C30000080CDE90154BA2200212048FCF720FF82
:103C40000097CDE901540123BB2200211B48FCF75A
:103C500017FFBDF80C00012340BA3082CDF8008078
:103C6000CDE90154BC2200211448FCF709FF00975C
:103C7000CDE901540123BD2200211048FCF700FFCB
:103C8000BDF80C00012340BA7082CDF80080CDE968
:103C90000154BE2200210948FCF7F2FE0097CDE94D
:103CA00001540123BF2200210448FCF7E9FEBDF8BE
:103CB0000C0040BAB082BDE8FF810000780000200F
:103CC0000020034902460A54401C9628FBD3704743
:103CD000C00100202DE9FF4104462E208DF80C0084
:103CE000012603AF32250097CDE9016588463346AA
:103CF000F4221B48FCF7C2FF0520FCF739FD0097B2
:103D0000CDE901650123F62241461548FCF7B8FECE
:103D1000781CCDE900060123F722414602951048A0
:103D2000FCF7AEFEBDF80C00618940BA401A21894B
:103D3000B4F914204843B4F91210C013C902024464
:103D400091FBF2F1084420630830001100EE100AE4
:103D5000DFED040AB8EEC00A20EE200ABDE8FF81BC
:103D600078000020CDCCCC3D2DED068B98B0FDF732
:103D700057F8FEF783FDFEF7C9FAFEF741FDFEF79F
:103D800049FCFEF771FCFEF7BFFCFEF70DFD624833
:103D9000FFF78CFE6148FDF780FD6148FDF77DFD72
:103DA0004FF0FF34234626225EA16848FEF760F8F4
:103DB0002346A02266496548FEF75AF86548FDF794
:103DC00005FC012264496148FDF760FFF3EE040A37
:103DD000CDED060A9FED610A01218DED070ACDEDBB
:103DE000080A6846FFF746FE002060210B90099103
:103DF0000D9010911290149001464848FDF76AFD0D
:103E000000214748FDF766FD554D564EF5EE008AF8
:103E10009FED558A504C00213F48FFF75BFFF0EEC5
:103E2000400A1920F0EE609AFCF7A2FC02213A4801
:103E3000FFF750FFB0EE401A1920B0EE41AAFCF790
:103E400097FC04213448FFF745FFF0EE400A1920A3
:103E5000B0EE609AFCF78CFC06212F48FFF73AFF82
:103E600079EE8A0A70EE890A30EE800A20EE280A7E
:103E700084ED020A28889DED031A00EE900ADDED1C
:103E8000001A9DED042AF8EE600A30EE600ADDEDBE
:103E9000010A60EE810A41EE800ADDED021A41EE70
:103EA000820ADDED051A8DED041A8DED030A70EE20
:103EB000A10ACDED050A38EE600A10EE100A84ED75
:103EC000010AB04202DD84ED018A08E0B5EEC00AC5
:103ED000F1EE10FA03D29FED250A84ED010A94ED6C
:103EE000010A002209A9BCEEC00A0C488DED0A0A9D
:103EF000FDF76BFC08B1C7210AE01D48002210A99C
:103F0000007811900648FDF760FC002883D0CD2191
:103F100018A0FFF7EDF800003C000020CC000020C6
:103F20000801002057656C636F6D652050726F67E4
:103F300072616D6D61626C6520496E647573747237
:103F400069616C204F76656E0D0A000080010020CB
:103F50009C3F00084401002004000020CDCCCC3C54
:103F6000140000200000C8420000C8420000000009
:103F7000110000202E2E2F5372632F6D61696E2E5B
:103F800063000000000000000000000001020304C4
:103F90000607080900000000010203044176616978
:103FA000626C65206F7065726174696F6E733A2020
:103FB00028312953686F772043757272656E7420BB
:103FC00054656D706572617475726520616E6420F0
:103FD00046616E20737461747573283229496E735B
:103FE000657274207461726765742074656D7065A4
:103FF0007261747572652833295365742066616E29
:1040000020737065656420283429496E7365727465
:104010002074656D706572617475726520666F726B
:10402000206120676976656E2074696D650D0A00F0
:1040300053656C65637420616E206F706572617486
:10404000696F6E202020202020202020202020208A
:104050002020202020202020202020202020202060
:104060002020202020202020202020202020202050
:104070002020202020202020202020202020202040
:10408000202020202020202020202020200D000083
:1040900053656C65637420616E206F706572617426
:1040A000696F6E202020202020202020202020202A
:1040B0002020202020202020202020202020202000
:1040C00020202020202020202020202020202020F0
:1040D00020202020202020202020202020202020E0
:1040E0002020200D000000005468652074696D6573
:1040F000722069732073657420746F202564206DAD
:10410000696E757465732C20636F6E6669726D3F9E
:104110005B792F6E5D202020202020202020202071
:10412000202020202020202020202020202020208F
:10413000202020202020202020202020202020207F
:104140002020202020202020202020200D000000E2
:104150005468652066616E2073706565642025640F
:1041600020636F6E6669726D3F5B792F6E5D2020F4
:10417000202020202020202020202020202020203F
:10418000202020202020202020202020202020202F
:10419000202020202020202020202020202020201F
:1041A00020202020200D0000496E73657274206667
:1041B000616E207370656564205B303030202D2087
:1041C0003130305D202563256325632020202020A9
:1041D00020202020202020202020202020202020DF
:1041E00020202020202020202020202020202020CF
:1041F0002020202020202020202020200D00000032
:10420000496E736572742074656D70657261747542
:10421000726520746F207265616368205B30303096
:10422000202D203330305D20256325632563202039
:10423000202020202020202020202020202020207E
:10424000202020202020202020202020202020206E
:10425000202020200D000000496E736572742074C8
:10426000696D65722076616C75652C20696E206DB4
:10427000696E75746573205B303030202D203530C9
:10428000305D202563256325632020202020202009
:10429000202020202020202020202020202020201E
:1042A00020202020202020202020202020200D0041
:1042B0005468652070726F6A656374656420766106
:1042C0006C756520666F74207468652074656D7008
:1042D0006572617469726520697320256420636F5B
:1042E0006E6669726D3F5B792F6E5D202020202005
:1042F00020202020202020202020202020202020BE
:10430000202020200D00000054656D7065726174DE
:10431000757265203A202566205B43656C73757362
:104320005D2046616E2073706565643A20256420C7
:104330005B70657263656E746167655D204163746F
:104340007561746F722050574D3A202564202020EB
:104350002020202020202020202020200D000000D0
:104360004572726F722C2027256327206973206E97
:104370006F7420612076616C696420696E70757459
:10438000206368617261637465722E205072657378
:104390007320616E79206B657920746F20636F6E76
:1043A00074696E75652E2E2E20202020202020205E
:1043B000202020200D000000D8430008000000202D
:1043C0003C00000098310008144400083C00002024
:1043D0001C060000A83100080000000000000000DA
:1043E00000000000000000000000000000000000CD
:1043F0000000000000000000D0FFFFFFD0FFFFFF23
:10440000D0FFFFFF010000001000000000000000CE
:044410000024F40090
:04000005080001AD41
:00000001FF
